001000000001370000CENTRO DEMOCRÁTICO MANO FIRME CORAZÓN GRANDE                                                                        01
001000000001370010ALVARO                                            URIBE VELEZ                                       70041053       M01
001000000001370020MARIA DEL ROSARIO                                 GUERRA DE LA ESPRIELLA                            51636557       F01
001000000001370030PALOMA SUSANA                                     VALENCIA LASERNA                                  25280205       F01
001000000001370040ANA MERCEDES                                      GOMEZ MARTINEZ                                    32409585       F01
001000000001370050SUSANA                                            CORREA BORRERO                                    29344852       F01
001000000001370060ALFREDO                                           RANGEL SUAREZ                                     6757155        M01
001000000001370070IVAN                                              DUQUE MARQUEZ                                     79940745       M01
001000000001370080FERNANDO NICOLAS                                  ARAUJO RUMIE                                      73197942       M01
001000000001370090JOSE OBDULIO                                      GAVIRIA VELEZ                                     70042696       M01
001000000001370100ORLANDO                                           CASTAÑEDA SERRANO                                 79368831       M01
001000000001370110DANIEL ALBERTO                                    CABRALES CASTILLO                                 78753250       M01
001000000001370120EVERTH                                            BUSTAMANTE GARCIA                                 11330441       M01
001000000001370130ALFREDO                                           RAMOS MAYA                                        71788181       M01
001000000001370140JAIME ALEJANDRO                                   AMIN HERNANDEZ                                    72134948       M01
001000000001370150ERNESTO                                           MACIAS TOVAR                                      12187043       M01
001000000001370160RUBY THANIA                                       VEGA DE PLAZAS                                    41602385       F01
001000000001370170CARLOS FELIPE                                     MEJIA MEJIA                                       10257313       M01
001000000001370180PAOLA ANDREA                                      HOLGUIN MORENO                                    43585559       F01
001000000001370190NOHORA STELLA                                     TOVAR REY                                         40379689       F01
001000000001370200HONORIO MIGUEL                                    HENRIQUEZ PINEDO                                  85461456       M01
001000000001370210LEON RIGOBERTO                                    BARON NEIRA                                       1061389        M01
001000000001370220LUIS FERNANDO                                     CAICEDO LINCE                                     14239117       M01
001000000001370230FARUK                                             URRUTIA JALILIE                                   79690804       M01
001000000001370240JUAN                                              HURTADO CANO                                      10076326       M01
001000000001370250ZAIDA DEL CARMEN                                  BARRERO CUERVO                                    23268546       F01
001000000001370260JUAN CARLOS                                       LOPEZ BUILES                                      71684202       M01
001000000001370270GABRIEL                                           BURGOS MANTILLA                                   17194489       M01
001000000001370280SONIA LUCIA                                       NAVIA DE MOSQUERA                                 31848913       F01
001000000001370290MILLA PATRICIA                                    ROMERO SOTO                                       60400908       F01
001000000001370300CAROLINA                                          HOLGUIN TAFUR                                     38602612       F01
001000000001370310JANET ANTONIA                                     ARCHBOLD HOWARD                                   45486364       F01
001000000001370320GABRIEL ERNESTO                                   ARANGO BACCI                                      9093102        M01
001000000001370330DARIO                                             BLANDON CAICEDO                                   11803674       M01
001000000001370340ITALO                                             GARCIA JARA                                       7360698        M01
001000000001370350VIVIANA                                           MANRIQUE ZULUAGA                                  52532369       F01
001000000001370360LUIS OSWALDO                                      PARADA PRIETO                                     79456223       M01
001000000001370370JESUS ANGEL                                       QUINTERO MAZENETT                                 12715503       M01
001000000001370380CAROLINA                                          VILLEGAS DE NUBILA                                52865127       F01
001000000001370390MARIA DEL PILAR                                   GARCIA ARIZABALETA                                31277960       F01
001000000001370400MARTHA LUCIA                                      VASQUEZ ZAWADZKY                                  31294505       F01
001000000001370410DANIEL ANDRES                                     PALACIOS MARTINEZ                                 80136152       M01
001000000001370420JAIME ALBERTO                                     SARRIA LUNA                                       79505181       M01
001000000001370430MERY                                              BECERRA GOMEZ                                     41418976       F01
001000000001370440ALVARO                                            DIAZ GARAVITO                                     19058910       M01
001000000001370450HERNANDO MAURICIO                                 BERMUDEZ BERNAL                                   7305285        M01
001000000001370460MARIA CLAUDIA                                     DAZA CASTRO                                       51934951       F01
001000000001370470DIEGO JOSE                                        TOBON ECHEVERRI                                   8297583        M01
001000000001370480ANA JULIETA                                       RUIZ GIRALDO                                      65766293       F01
001000000001370510DIANA MARGARITA                                   GUTIERREZ DE PIÑERES                              39695315       F01
001000000001370520WILSON BENJAMIN                                   REY ARIAS                                         17621320       M01
001000000001370530MARIA GISELA                                      MANRIQUE DE BORRERO                               36160680       F01
001000000001370540RAMON ELIAS                                       LOPEZ SABOGAL                                     16254394       M01
001000000001370560OLGA LUCIA                                        VELEZ DE ALVAREZ                                  24950320       F01
001000000001370570JOSUE                                             PELAEZ GUEVARA                                    94316271       M01
001000000001370580MARGARITA                                         RESTREPO LONDOÑO                                  32509296       F01
001000000001370590ALVARO ORLANDO                                    GRIJALBA GOMEZ                                    10521031       M01
001000000001370600MARIA MARGARITA                                   DIAZ RESTREPO                                     55176521       F01
001000000001370630JOSE DAVID                                        GUZMAN MENDOZA                                    98668651       M01
001000000001370640JUAN DAVID                                        VELEZ TRUJILLO                                    80717874       M01
001000000001370650ALVARO                                            VALLEJO MAZUERA                                   17030320       M01
001000000001370660HERNANDO ALFONSO                                  AGUILERA BLANCO                                   17195174       M01
001000000001370680ADOLFO LISANDRO                                   VEGA VACA                                         19496550       M01
001000000001370690HERNAN DE JESUS                                   DE LA OSSA SUAREZ                                 3987853        M01
001000000001370720FERNANDO                                          ALAMEDA ALVARADO                                  19071325       M01
001000000001370730MILTON                                            RESTREPO RUIZ                                     93408564       M01
001000000001370740CAMILO                                            SAENZ KOPP                                        79295518       M01
001000000001370750LUIS GUILLERMO                                    JARAMILLO MEJIA                                   8254610        M01
001000000001370760YAHEL BIBIANA                                     BUENO PINEDA                                      37897589       F01
001000000001370770ORLANDO ALFONSO                                   GUETE DIAZ                                        94520841       M01
001000000001370780EDGARDO RAFAEL                                    MARTINEZ PAREJA                                   9049974        M01
001000000001370790RUBY HELENA                                       CHAGUI SPATH                                      52863429       F01
001000000001370800NICOLAS ELIAS                                     ABUCHAIBE SLEBI                                   8701279        M01
001000000001370810MARIA ELENA                                       VELEZ GOMEZ                                       42751523       F01
001000000001370820JUDY CECILIA                                      MATERA LAJUD                                      22410429       F01
001000000001370850ROBERTO                                           GEDEON GHISAYS                                    876277         M01
001000000001370870REBECA DEL SOCORRO                                BARRIENTOS SOSSA                                  42998780       F01
001000000001370900MARIA PAULA                                       HERNANDEZ CARRASCAL                               28540257       F01
001000000001370910GUSTAVO                                           PIRABAN CUESTO                                    3293772        M01
001000000001370930JAVIER ORLANDO                                    VILLAMIL RODRIGUEZ                                19440187       M01
001000000001370950MARIAN                                            JANNA DAVID                                       32500625       F01
001000000001370960CAROLINA                                          ESCAMILLA PACHECO                                 52410232       F01
001000000001370970BENILDA                                           ZAMORA PEDREROS                                   21260675       F01
001000000001370980RICARDO                                           VELEZ PAREJA                                      9067523        M01
001000000001370990CESAR MAURICIO                                    VELASQUEZ OSSA                                    70569157       M01
001000000001371000ALEJANDRO                                         ARBELAEZ ARANGO                                   71733170       M01
001000000000080000MOVIMIENTO " MIRA "                                                                                                 02
001000000000080010GLORIA STELLA                                     DIAZ ORTIZ                                        51739161       F02
001000000000080020MANUEL ANTONIO                                    VIRGUEZ PIRAQUIVE                                 72162878       M02
001000000000080030CARLOS ALBERTO                                    BAENA LOPEZ                                       79432123       M02
001000000000080040MARISOL                                           MORENO ROMERO                                     40436963       F02
001000000000080050HEYDER ORLANDO                                    GOMEZ DIAZ                                        6403470        M02
001000000000080060JACQUELINE                                        TOLOZA CASTAÑO                                    43721536       F02
001000000000080070MAURIN DEL ROSARIO                                BERNAL CERQUERA                                   55162778       F02
001000000000080080LUIS ERNESTO                                      OLAVE VALENCIA                                    79672384       M02
001000000000080090ANDRES FELIPE                                     OCAMPO VILLEGAS                                   18597631       M02
001000000000080100SEBASTIAN                                         MARTINEZ LADINO                                   74377662       M02
001000000000080110JANNER ERIBERTO                                   ALEMAN SEVERICHE                                  10880032       M02
001000000000080120TERESA                                            ORTIZ NAVIA                                       30398940       F02
001000000000080130LACIDES                                           MAZUERA SANCHEZ                                   14218880       M02
001000000000080140RUBY                                              TABARES CALERO                                    31147215       F02
001000000000080150MARIA FELISA                                      PASPUR POSSO                                      39710955       F02
001000000000080160MAXIMILIANO                                       TOVAR DEVIA                                       3045298        M02
001000000000080170ROSA ASUNCION                                     PINO CAICEDO                                      54255804       F02
001000000000080180MAURICIO                                          PULGARIN ARIAS                                    9872006        M02
001000000000080190MONICA                                            MARIN PEÑUELA                                     66768152       F02
001000000000080200JAKSSON                                           ASPRILLA RAMOS                                    11808157       M02
001000000000080210GILBERTO                                          ECHEVERRIA SUAREZ                                 4055175        M02
001000000000080220CLAUDIA LILIANA                                   MEDINA MARTINEZ                                   52144301       F02
001000000000080230CLAUDIA ALEXANDRA                                 SAAVEDRA BECERRA                                  39576411       F02
001000000000080240FABIO ANTONIO                                     VILLA VILLA                                       7518683        M02
001000000000080250LUZVY CELENA                                      CALDERON CALDERON                                 42403469       F02
001000000000080260ENALBA ISABEL                                     LOBO DE HOYOS                                     64475162       F02
001000000000080270ARMANDO                                           SARMIENTO MORENO                                  19123622       M02
001000000000080280MARIA ELENA                                       DE JESUS SOLANO                                   31918273       F02
001000000000080290PEDRO ELISEO                                      VILLALBA VARGAS                                   8690548        M02
001000000000080300BELISARIA                                         MOSQUERA TELLO                                    51580301       F02
001000000000080310ROSENDO GABRIEL                                   GOMEZ MARTINEZ                                    78704510       M02
001000000000080320EVA YOLANDA                                       CASAS PIRAQUIVE                                   28191793       F02
001000000000080330DIEGO ANDRES                                      URUEÑA REINA                                      80122402       M02
001000000000080340MARGERY                                           FLOREZ VALENCIA                                   43746139       F02
001000000000080350ZOILA ROSA                                        ANGULO RODELO                                     57403711       F02
001000000000080360PEDRO ANDRES                                      CASTILLO CADAVID                                  94394864       M02
001000000000080370FLORINDA                                          GONZALEZ TRIANA                                   23551246       F02
001000000000080380ALAN GUILLERMO                                    MICOLTA GACHARNA                                  79782026       M02
001000000000080390YANDIRA ALEXANDRA                                 FARAH BOTERO                                      43875068       F02
001000000000080400DIEGO FERNANDO                                    TRIANA CALDERON                                   72168644       M02
001000000000080410LISBETH                                           CEDEÑO DELGADO                                    47432970       F02
001000000000080420NORBERTO                                          RODRIGUEZ HERNANDEZ                               5888579        M02
001000000000080430ANA SILVIA                                        JARA CABUYA                                       51948784       F02
001000000000080440EDWIN ALFONSO                                     HINOJOSA RUIZ                                     17589729       M02
001000000000080450ANDREA LILIANA                                    MADRID DAVILA                                     42125636       F02
001000000000080460NELYS MARIA                                       GALLEGO QUIROGA                                   26870699       F02
001000000000080470GLADYS                                            JIMENEZ CELYS                                     30082448       F02
001000000000080480DIEGO ARMANDO                                     CHARRY NIETO                                      5819994        M02
001000000000080490MARIA JOSE                                        HERRERA SIERRA                                    50870725       F02
001000000000080500JOSE ELIBERTO                                     MUÑOZ MORENO                                      4286379        M02
001000000000080510JIMMY JAVIER                                      MONTENEGRO MENESES                                87719142       M02
001000000000080520EMILIO                                            GONZALEZ GONZALEZ                                 3176288        M02
001000000000080530GERMAN ELIECER                                    GARNICA VEGA                                      79956590       M02
001000000000080540ALVARO                                            ACOSTA CAMACHO                                    91426289       M02
001000000000080550LUIS EUSTORGIO                                    PINTO ARENAS                                      19478713       M02
001000000000080560JHON WILTON                                       SIERRA RUIZ                                       71220292       M02
001000000000080570MARIO FERNANDO                                    COMBITA BRIÑEZ                                    93397923       M02
001000000000080580LUIS EDUARDO                                      GONZALEZ RICARDO                                  73566071       M02
001000000000080590DAGOBERTO                                         NEGRETE MONTIEL                                   8165953        M02
001000000000080600NEIFER XAVIER                                     MATUTE NAVARRO                                    84451078       M02
001000000000080610LUIS CARLOS                                       JARAMILLO GOMEZ                                   71710412       M02
001000000000080620MANUEL ENRIQUE                                    SALGADO DIAZ                                      8324395        M02
001000000000080630LAUREANO                                          SAAVEDRA CASTAÑO                                  80489345       M02
001000000000080640JAIRO ALFONSO                                     MOLINA AREVALO                                    3251055        M02
001000000000080650CARLOS RAUL                                       ROBAYO GUTIERREZ                                  79418740       M02
001000000000080670CARMENZA                                          QUIROS GARCIA                                     43154105       F02
001000000000080680LUZ DORY                                          HERRERA MACHADO                                   42087016       F02
001000000000080690JAIME LEON                                        ORTIZ TORRES                                      98517142       M02
001000000000080700LUIS GUILLERMO                                    CALLE ALVAREZ                                     70558958       M02
001000000000080710CESAR AUGUSTO                                     VILLEGAS RAMIREZ                                  16160535       M02
001000000000020001PARTIDO CONSERVADOR COLOMBIANO                                                                                      03
001000000000020011ROBERTO VICTOR                                    GERLEIN ECHEVERRIA                                17013868       M03
001000000000020021JORGE HERNANDO                                    PEDRAZA GUTIERREZ                                 79273232       M03
001000000000020031EFRAIN JOSE                                       CEPEDA SARABIA                                    7455054        M03
001000000000020041JOSE DARIO                                        SALAZAR CRUZ                                      10529075       M03
001000000000020051LUIS EMILIO                                       SIERRA GRAJALES                                   10250828       M03
001000000000020061FERNANDO EUSTACIO                                 TAMAYO TAMAYO                                     19123263       M03
001000000000020071NORA MARIA                                        GARCIA BURGOS                                     34970991       F03
001000000000020081OLGA LUCIA                                        SUAREZ MIRA                                       43432195       F03
001000000000020091HERNAN FRANCISCO                                  ANDRADE SERRANO                                   12119181       M03
001000000000020101CARLOS EMIRO                                      BARRIGA PEÑARANDA                                 13257188       M03
001000000000020111JUAN MANUEL                                       CORZO ROMAN                                       13459902       M03
001000000000020121MYRIAM ALICIA                                     PAREDES AGUIRRE                                   30710789       F03
001000000000020131JAVIER MAURICIO                                   DELGADO MARTINEZ                                  94381981       M03
001000000000020141JUAN DIEGO                                        GOMEZ JIMENEZ                                     71758156       M03
001000000000020151JUAN DE JESUS                                     CORDOBA SUAREZ                                    4058857        M03
001000000000020161ANGELMIRO                                         ALVARADO MENDIETA                                 12228771       M03
001000000000020171NIDIA MARCELA                                     OSORIO SALGADO                                    42764273       F03
001000000000020181LUZ ESTELA                                        CACERES MORALES                                   33104162       F03
001000000000020191RAUL ALFONSO                                      CARDOZO ORDOÑEZ                                   5638225        M03
001000000000020201JOSE IVAN                                         CLAVIJO CONTRERAS                                 19156034       M03
001000000000020211NADYA GEORGETTE                                   BLEL SCAFF                                        52890539       F03
001000000000020221CARLOS EDUARDO                                    ENRIQUEZ MAYA                                     12958801       M03
001000000000020231YAKELINE                                          GALVAN LOBO                                       49661417       F03
001000000000020241JORGE IVAN                                        ORTIZ ARISTIZABAL                                 19269052       M03
001000000000020251CARLOS RAMIRO                                     CHAVARRO CUELLAR                                  12194906       M03
001000000000020261RODRIGO                                           GRAJALES VALENCIA                                 70721710       M03
001000000000020271GLADYS HELENA                                     ORTIZ FLOREZ                                      43363379       F03
001000000000020281JUAN JOSE                                         TORRES SERRATO                                    79273205       M03
001000000000020291HECTOR HORACIO                                    VARGAS                                            2917919        M03
001000000000020301MARTHA HELENA                                     PEREZ GAVIRIA                                     51573809       F03
001000000000020311KATTY LORENA                                      CERVANTES PEREZ                                   32854949       F03
001000000000020321ANGEL ESTEBAN                                     RODRIGUEZ RIASCOS                                 1061112062     M03
001000000000020331MIGUEL DE JESUS                                   NIÑO SANDOVAL                                     19069133       M03
001000000000020341JESSE JAIRO                                       FONSECA CAMACHO                                   72130891       M03
001000000000020351LAUREANO AUGUSTO                                  ACUÑA DIAZ                                        72175377       M03
001000000000020361LUIS ALBERTO                                      LOPEZ GONZALEZ                                    13880090       M03
001000000000020371MAURICIO                                          FERNANDEZ FRANCO                                  80394158       M03
001000000000020381CARLOS ARTURO                                     POSSO MENDOZA                                     73168802       M03
001000000000020391ELIAN                                             RIOS GARCIA                                       91436187       M03
001000000000020401JORGE ARMANDO                                     MENDIETA POVEDA                                   7300688        M03
001000000000020411ROSA ANA                                          CAMACHO WEVERBERG                                 35464028       F03
001000000000020421ROSA MARLENE                                      BURBANO RAMIREZ                                   39696554       F03
001000000000020431LEONEL                                            GOMEZ MURILLO                                     17080408       M03
001000000000020441CLAUDIA                                           DANGOND GIBSONE                                   51805671       F03
001000000000020451JUAN SAMY                                         MERHEG MARUN                                      10131929       M03
001000000000020461NATALIA                                           MORALES URQUIJO                                   52991109       F03
001000000000020471JUAN CARLOS                                       CUARTAS SALGADO                                   79408267       M03
001000000000020481RUBEN DARIO                                       GIRALDO CARVAJAL                                  80096281       M03
001000000000020491JUAN MARIO                                        LASERNA JARAMILLO                                 80412791       M03
001000000000020501GERMAN                                            VILLEGAS VILLEGAS                                 14431689       M03
001000000000020511DIANA PATRICIA                                    CELY SEGURA                                       52813668       F03
001000000000020521HECTOR HERNANDO                                   BENITEZ MORENO                                    15506129       M03
001000000000020531FELIX MARIA                                       NARVAEZ LOSADA                                    17636596       M03
001000000000020541JUAN RAMON                                        JIMENEZ LARA                                      76324026       M03
001000000000020551JESUS EDUARDO                                     ORTIZ JIMENEZ                                     14250032       M03
001000000000020561RODOLFO                                           RINCON SOSA                                       19231718       M03
001000000000020571SHIRLEY                                           GUERRERO LOPEZ                                    52826086       F03
001000000000020581CONRADO DE JESUS                                  ROJAS ARANGO                                      4893861        M03
001000000000020591JAVIER ARMANDO                                    SUAREZ PASCAGAZA                                  2989363        M03
001000000000020601JOSE MIGUEL                                       SALCEDO LUNA                                      79919143       M03
001000000000020621LUZ ALBA                                          MUÑETON JARAMILLO                                 32555201       F03
001000000000020631SILVIA MARCELA                                    CORREA RODRIGUEZ                                  51957737       F03
001000000000020651GINNA FERNANDA                                    GARCIA AGUILAR                                    52883594       F03
001000000000020661LUIS FERNANDO                                     YANES ESCOBAR                                     14889405       M03
001000000000020671ANGEL MARIA                                       PRIETO MONCADA                                    11252406       M03
001000000000020681ALBERTO                                           LIZARAZO                                          19483397       M03
001000000000020691JUAN FELIPE                                       BEDOYA LOPEZ                                      79980050       M03
001000000000020701MAX ENRIQUE                                       RODRIGUEZ ARENAS                                  8664236        M03
001000000000020711ROCIO DEL PILAR                                   SANCHEZ BERMUDEZ                                  51883190       F03
001000000000020741CAROL ASTRID                                      GUAQUETA GUTIERREZ                                52537152       F03
001000000000020751WILSON GERARDO                                    VINCHERY ROJAS                                    7309328        M03
001000000000020761PEDRO INAEL                                       LAYTON CAVIEDES                                   79688654       M03
001000000000020781GERMAN GUSTAVO                                    VIVAS GUERRERO                                    80227270       M03
001000000000020801JOHN JAIRO                                        DIAZ GAVIRIA                                      19187814       M03
001000000000020821BEATRIZ VICTORIA                                  HINESTROZA LOPEZ                                  43496553       F03
001000000000020841HEYDE                                             LOPEZ DURAN                                       51646493       F03
001000000000020851JUAN CARLOS                                       DONADO CAAMAÑO                                    73120601       M03
001000000000020861ALVARO JOSE                                       RUDAS GARZON                                      16856116       M03
001000000000020881RAUL ALBERTO                                      VIVES LACOUTURE                                   12550179       M03
001000000000020891MAURICIO                                          DIAZ ARELLANO                                     14893571       M03
001000000000020901LUIS MANUEL                                       RODRIGUEZ MARTINEZ                                19293749       M03
001000000000020921RAFAEL ANTONIO                                    RODRIGUEZ MORENO                                  7850           M03
001000000000020931LINDOR LEXCER                                     LESMES INFANTE                                    86044703       M03
001000000000020941YAMINA DEL CARMEN                                 PESTANA ROJAS                                     50880946       F03
001000000000020961JUAN                                              CASAS RODRIGUEZ                                   19099155       M03
001000000000020971GERALDO RAFAEL                                    MEZA VALDES                                       73120953       M03
001000000000020981MARTA CECILIA                                     RAMIREZ ORREGO                                    22059686       F03
001000000000020991AMPARO                                            SANCHEZ LONDOÑO                                   31163651       F03
001000000000021001ANGELA MERCEDES                                   OSPINA DE NICHOLLS                                42984849       F03
001000000000100001POLO DEMOCRATICO ALTERNATIVO                                                                                        04
001000000000100011JORGE ENRIQUE                                     ROBLEDO CASTILLO                                  14204889       M04
001000000000100021ALEXANDER                                         LOPEZ MAYA                                        16744638       M04
001000000000100041BEATRIZ                                           CARVALLO SUAREZ                                   36150002       F04
001000000000100051ALBA LUZ                                          PINILLA PEDRAZA                                   63286342       F04
001000000000100061TARSICIO                                          MORA GODOY                                        19218961       M04
001000000000100071DIEGO FERNANDO                                    OTERO PRADA                                       17068605       M04
001000000000100081SEGUNDO SENEN                                     NIÑO AVENDAÑO                                     6756763        M04
001000000000100091JESUS ALBERTO                                     CASTILLA SALAZAR                                  13375353       M04
001000000000100101IVAN                                              CEPEDA CASTRO                                     79262397       M04
001000000000100111OLGA STELLA                                       FORERO DE SILVA                                   41408616       F04
001000000000100121ALVARO LEON                                       CARDONA SALDARRIAGA                               8396234        M04
001000000000100131ALVARO                                            PATIÑO SANCHEZ                                    79531876       M04
001000000000100141RODOLFO                                           ARANGO RIVADENEIRA                                79262424       M04
001000000000100151YESID HERNANDO                                    CAMACHO JIMENEZ                                   14228328       M04
001000000000100161GERMAN                                            FERNANDEZ CABRERA                                 19132623       M04
001000000000100171AURA DALIA                                        CAICEDO VALENCIA                                  31379338       F04
001000000000100181CONSUELO                                          MOURE DE RAMIREZ                                  41372870       F04
001000000000100191CARLOS ALFREDO                                    CROSTHWAITE FERRO                                 10074407       M04
001000000000100201FRANCISCO JAVIER                                  MARRUGO ZAMBRANO                                  73079243       M04
001000000000100211LUZ STELLA                                        RAMIREZ GUEVARA                                   31303986       F04
001000000000100221GLORIA ELENA                                      QUICENO ACEVEDO                                   41700493       F04
001000000000100231AMADO DE JESUS                                    CARUPIA YAGARI                                    15526992       M04
001000000000100241VALERIO                                           MAZA ESPINOSA                                     8429672        M04
001000000000100251JULIO CESAR                                       MANCERA ACOSTA                                    79615526       M04
001000000000100261JOSE ISAURO                                       ROMAN                                             7923790        M04
001000000000100271ALEXANDRA                                         USECHE CUERVO                                     52343426       F04
001000000000100281ALONSO                                            OROZCO GOMEZ                                      17626102       M04
001000000000100291CARLOS JAIME                                      PIEDRAHITA CARDONA                                8212518        M04
001000000000100301JOSE FREDDY                                       MOSQUERA YEPEZ                                    5883755        M04
001000000000100311LUIS ALFONSO                                      CALDERON BELTRAN                                  5817028        M04
001000000000100321CESAR AUGUSTO                                     GONZALEZ GARCIA                                   19474056       M04
001000000000100331MARIA MAGNOLIA                                    SANCHEZ PAREDES                                   36171054       F04
001000000000100341RICARDO                                           CARDONA CASSERES                                  8679506        M04
001000000000100351ALBERTO MANUEL                                    GASCON GIRALDO                                    84043365       M04
001000000000100361JOSE MILTON                                       MESA DUARTE                                       79331229       M04
001000000000100371IVAN ALFONSO                                      RODRIGUEZ HERRERA                                 91497143       M04
001000000000100381RAFAEL                                            MORA BONILLA                                      13235639       M04
001000000000100391EMPERATRIZ                                        CAHUACHE CASADO                                   40176643       F04
001000000000100401DOUGLAS SEBASTIAN                                 VELASQUEZ JACOME                                  17111390       M04
001000000000100411FREDY                                             VALENCIA ACOSTA                                   73144136       M04
001000000000100421JULIO CESAR                                       QUINTERO BATERO                                   9894009        M04
001000000000100431ALVARO                                            SARMIENTO DUARTE                                  13460222       M04
001000000000100441EDUARDO ENRIQUE                                   LLANES SILVERA                                    12530320       M04
001000000000100451JHON ROBERT                                       GERLEIN BERDUGO                                   72148467       M04
001000000000100461GILBERTO                                          BARRERA GARCIA                                    19367404       M04
001000000000100471CARLOS URBANO                                     DIAZ GRANADOS LACOUTURE                           12546286       M04
001000000000100481ALVARO JOSE                                       SALOMON CALVANO                                   12546586       M04
001000000000100491EFREN HERNAN                                      POVEDA                                            79608567       M04
001000000000100501ELIDA                                             MANZANO GARCIA                                    35486402       F04
001000000000100511ARMANDO ARTURO                                    ALVARADO GUILLEN                                  19318568       M04
001000000000100521CLAUDINE                                          ROCA NUÑEZ                                        52620269       F04
001000000000100531PLINIO                                            HERNANDEZ GAMBA                                   6774858        M04
001000000000100541MARIELA                                           CORTES TORRES                                     52127057       F04
001000000000100551LILIA ELVIRA                                      RODRIGUEZ DE OLARTE                               20935452       F04
001000000000100581JOSE DEIBY                                        QUINTERO VALENCIA                                 71311925       M04
001000000000100591SANDRA MILENA                                     OLIVARES HOMEZ                                    52874131       F04
001000000000100601MAX ORLANDO                                       GALEANO GASCA                                     19359558       M04
001000000000100611CLARA INES                                        FORERO SANTANA                                    51990961       F04
001000000000100621ELIZABETH                                         CORTES SUAREZ                                     41648720       F04
001000000000100631DENIS ENRIQUETA                                   CASADO ACOSTA                                     49550403       F04
001000000000100641MARIA AURORA                                      REY FIRACATIVE                                    39536187       F04
001000000000100651INES                                              VASCO MARULANDA                                   32454005       F04
001000000000100661MARIA HAYDEE                                      BARRERO                                           51837190       F04
001000000000100671MARIA ORFILIA                                     GONZALEZ AGUILAR                                  24305685       F04
001000000000100681JUANITA MARIA                                     PEREZ GUERRERO                                    52388199       F04
001000000000030001PARTIDO OPCION CIUDADANA                                                                                            05
001000000000030011ANGEL ALIRIO                                      MORENO MATEUS                                     91011989       M05
001000000000030021DORIS CLEMENCIA                                   VEGA QUIROZ                                       41770826       F05
001000000000030031CARLOS ARTURO                                     QUINTERO MARIN                                    2469454        M05
001000000000030041WILLIAM ALBERTO                                   RODRIGUEZ CABAL                                   16275853       M05
001000000000030051TERESITA                                          GARCIA ROMERO                                     33281286       F05
001000000000030071NERTHINK MAURICIO                                 AGUILAR HURTADO                                   79904435       M05
001000000000030081HERIBERTO                                         ESCOBAR GONZALEZ                                  94509330       M05
001000000000030091GUSTAVO ALONSO                                    PAEZ MERCHAN                                      79332666       M05
001000000000030101ANTONIO JOSE                                      CORREA JIMENEZ                                    72003250       M05
001000000000030111JHONNY                                            ROMERO JULIO                                      73120026       M05
001000000000030121JORGE ANTONIO                                     TRUJILLO SARMIENTO                                13387893       M05
001000000000030131YOLANDA                                           ARBOLEDA SANTOS                                   29327590       F05
001000000000030141LUIS ALFONSO                                      OLMOS MONTALVO                                    73161974       M05
001000000000030151GILBERTO                                          SERPA MENDOZA                                     17626882       M05
001000000000030161OCTAVIO                                           CARDENAS PIMIENTO                                 17138765       M05
001000000000030181CENI JAIDITH                                      SUAZA CAMACHO                                     55144938       F05
001000000000030191NESTOR GUSTAVO                                    PEREZ ROCA                                        3763294        M05
001000000000030201RICARDO                                           HERRERA CORREA                                    13929086       M05
001000000000030211BELEN MARIA                                       GALLOR VILLA                                      35510109       F05
001000000000030221LEONARDO JOSE                                     CUERVO CUERVO                                     16842104       M05
001000000000030231HECTOR                                            ESCUDERO LOPEZ                                    7523548        M05
001000000000030241FABIO                                             TORRES NOVOA                                      19168452       M05
001000000000030251ANICETO                                           ALVAREZ HURTADO                                   6311551        M05
001000000000030261MARIA TERESA                                      ARANDA SERRANO                                    52275958       F05
001000000000030281RICARDO ALFONSO                                   FAJARDO BERNAL                                    19413827       M05
001000000000030301MANUEL DIMAS                                      NARANJO GOMEZ                                     98530287       M05
001000000000030321LUZ MARINA                                        DIAZ DIAZ                                         46362818       F05
001000000000030331AMPARO DEL PILAR                                  ZULUAGA CARVAJAL                                  52887511       F05
001000000000030351GLORIA ASCENETH                                   GUZMAN SUAREZ                                     52006823       F05
001000000000030401WILFRIDO                                          OROBIO HERNANDEZ                                  16498672       M05
001000000000030441SANDRA MILENA                                     QUINTERO FIGUEREDO                                52766113       F05
001000000000030451LEOPOLDO                                          DE LA ROSA ARIZA                                  85475135       M05
001000000000030501JULIO MIGUEL                                      GUERRA SOTTO                                      79777511       M05
001000000000030551ROBERTO                                           BRICEÑO CHIRIVI                                   79429601       M05
001000000000030601MARTHA                                            VASQUEZ GARZON                                    51894790       F05
001000000000030641HUGO FERNANDO                                     ARCE GUZMAN                                       79480272       M05
001000000000030701MARILYN PATRICIA                                  GOMEZ AGUDELO                                     51667801       F05
001000000000030771VICTOR                                            VELASQUEZ REYES                                   3296610        M05
001000000000030801MARCELA                                           RAMIREZ ACEVEDO                                   37862542       F05
001000000000030851EFRAIN                                            TORRES PLAZAS                                     4940037        M05
001000000000030901ALBA CRISTINA                                     BEDOYA                                            52468204       F05
001000000000030981PEDRO                                             IMITOLA GRANADOS                                  72204635       M05
001000000000030991EDUARDO EMILIO                                    PACHECO CUELLO                                    12541530       M05
001000000000031001EDGAR                                             ESPINDOLA NIÑO                                    9529149        M05
001000000000040001PARTIDO CAMBIO RADICAL                                                                                              06
001000000000040011CARLOS FERNANDO                                   GALAN PACHON                                      79929411       M06
001000000000040021ARTURO                                            CHAR CHALJUB                                      8532318        M06
001000000000040031ANTONIO DEL CRISTO                                GUERRA DE LA ESPRIELLA                            6818444        M06
001000000000040041DAIRA DE JESUS                                    GALVIS MENDEZ                                     22787867       F06
001000000000040051DUSAN ALBIN                                       VELEZ TRUJILLO                                    73141115       M06
001000000000040061HUMBERTO                                          PELAEZ GUTIERREZ                                  17011347       M06
001000000000040071JUAN CARLOS                                       RESTREPO ESCOBAR                                  79461902       M06
001000000000040081ALFONSO ENRIQUE                                   MATTOS BARRERO                                    19295679       M06
001000000000040091ROSMERY                                           MARTINEZ ROSALES                                  51705439       F06
001000000000040101CARLOS FERNANDO                                   MOTOA SOLARTE                                     94324051       M06
001000000000040111STEVENSON                                         MARULANDA PLATA                                   5159302        M06
001000000000040121BERNABE                                           CELIS CARRILLO                                    13835536       M06
001000000000040131HAROLD                                            MOSQUERA RENGIFO                                  11797041       M06
001000000000040141HENRY ALEXANDER                                   CASTELLANOS ORJUELA                               79629241       M06
001000000000040151LUIS ENRIQUE                                      PONTE GUERRA                                      87431358       M06
001000000000040161ALVARO ALBINO                                     BASTIDAS MOREANO                                  18142672       M06
001000000000040171ARGEMIRO JOSE                                     AGAMEZ PALACIO                                    15042633       M06
001000000000040181LUIS CARLOS                                       AGUDELO GALVIS                                    16244514       M06
001000000000040191ABEL ANTONIO                                      RIVEROS ROJAS                                     13479435       M06
001000000000040201JOSE FRANCISCO                                    HERRERA ACOSTA                                    72165512       M06
001000000000040211JUAN PABLO                                        POVEDA MEDINA                                     19387738       M06
001000000000040221ARBEY                                             DELGADO ARGOTE                                    12234158       M06
001000000000040231GLORIA HELENA                                     REBOLLEDO TIGREROS                                31998448       F06
001000000000040241FLOR PAULINA                                      DONADO GARIZAO                                    32615663       F06
001000000000040251LUIS EDUARDO                                      ARREDONDO TORRES                                  77037578       M06
001000000000040261GUSTAVO                                           RAMIREZ OROZCO                                    10029274       M06
001000000000040271ALEXANDRA                                         MESA LEON                                         46666431       F06
001000000000040281JUAN MANUEL                                       PULIDO HURTADO                                    19248713       M06
001000000000040291JOSE JAMES                                        OSPINA MURILLO                                    78703427       M06
001000000000040301JOSE LEOMAR                                       CORTES DELGADO                                    19338255       M06
001000000000040311INGRID ESPERANZA                                  LUGO DIAZ                                         52553693       F06
001000000000040321JOSE HUMBERTO                                     VERGARA HENAO                                     79302611       M06
001000000000040331JAIRO HERNANDO                                    SALAZAR MORENO                                    17122987       M06
001000000000040341MELIK                                             SARKIS TORRES                                     13499020       M06
001000000000040351ANGIE NATALIA                                     BOLIVAR CORREA                                    52548188       F06
001000000000040361HECTOR JULIO                                      RAMOS PRIETO                                      74795537       M06
001000000000040371GERSANIN                                          PINZON BARRERA                                    79245543       M06
001000000000040381MIGUEL ORLANDO                                    ACEVEDO SALAS                                     79753954       M06
001000000000040391ANDRES FERNANDO                                   VASQUEZ VARGAS                                    9693706        M06
001000000000040401RAUL HERACLITO                                    MARTINEZ SANCHEZ                                  3014962        M06
001000000000040411MARTHA INES                                       LLOREDA DE BOTERO                                 41627877       F06
001000000000040421GABRIEL ANTONIO                                   LOPEZ GUZMAN                                      15034593       M06
001000000000040431LUIS FERNANDO                                     PARRA LEON                                        79882864       M06
001000000000040441JAVIER ANDRES                                     CORREDOR TORRES                                   80027028       M06
001000000000040451GUSTAVO                                           VILLAMIZAR CORZO                                  13251033       M06
001000000000040461ANA MARIA                                         QUINCHANEGUA PIAMONTE                             41336980       F06
001000000000040471ALFREDO ENRIQUE                                   NUÑEZ NORIEGA                                     12596669       M06
001000000000040481EDUIN HUMBERTO                                    CORSO HERNANDEZ                                   4061041        M06
001000000000040491JUAN ESTEBAN                                      MEJIA ARBOLEDA                                    71683767       M06
001000000000040501CARLOS ANIBAL                                     LOZANO LOZANO                                     79957750       M06
001000000000040511CARLOS ENRIQUE                                    VARGAS ANGARITA                                   7219338        M06
001000000000040521EDITH                                             LEON DE CASTAÑEDA                                 41566854       F06
001000000000040531GUSTAVO ADOLFO                                    MATTOS PEREZ                                      17085382       M06
001000000000040541JOSE ANDRES                                       AREIZA PADILLA                                    80099932       M06
001000000000040551ALFREDO RAFAEL                                    SAADE VERGEL                                      13495407       M06
001000000000040561SONIA MARCELA                                     LAVADO BARON                                      52313288       F06
001000000000040571TERESA                                            MORENO MANCERA                                    52855631       F06
001000000000040581NELSON MAURICIO                                   ORTEGON AREVALO                                   80155242       M06
001000000000040591MARIA DEL ROSARIO                                 DIAZ MENDEZ                                       20737385       F06
001000000000040601YVONNE PAOLA                                      CINTURA DIONICIO                                  52490092       F06
001000000000040611SANDRA PATRICIA                                   CORDOBA ROJAS                                     52229733       F06
001000000000040621SERGIO                                            HERRERA RUEDA                                     72191917       M06
001000000000040631LINETH                                            ARCHBOLD CONTRERAS                                52964411       F06
001000000000040641ALBERTO TADEO                                     DE ANTONIO GOMEZ                                  6763182        M06
001000000000040651BLANCA FABIOLA                                    ORTIZ PENAGOS                                     51613526       F06
001000000000040661ANDRES                                            SALCEDO GALAN                                     79505963       M06
001000000000040671ANA DEL PILAR                                     DUARTE MURILLO                                    51924462       F06
001000000000040681GUSTAVO                                           SILVA RODRIGUEZ                                   19266571       M06
001000000000040691VICTOR MANUEL                                     JAUREGUI BECERRA                                  88031282       M06
001000000000040701WILSON                                            RUEDA BARON                                       91013376       M06
001000000000040711DARIO RICARDO                                     CASTRO PORTILLA                                   13068981       M06
001000000000040721LILIA                                             TORRES TORRES                                     41588609       F06
001000000000040731FELIX BIENVENIDO                                  ARIÑO FERNANDEZ                                   5158747        M06
001000000000040741ELENA                                             HERNANDEZ CRUZ                                    52296893       F06
001000000000040751MIGUEL HUMBERTO                                   GAMEZ SOTO                                        15886843       M06
001000000000040761NANCY YANET                                       CALDERON VILLAMIL                                 51830136       F06
001000000000040771JULIO CESAR                                       CASTILLO VELASQUEZ                                79240422       M06
001000000000040781LUIS FERNANDO                                     DELGADO JIMENEZ                                   10772968       M06
001000000000040791ELSA ESPERANZA                                    VARGAS PINEDA                                     23491378       F06
001000000000040801CESAR RAUL                                        AVILES                                            78689806       M06
001000000000040811HORACIO ISRAEL                                    BELTRAN PENAGOS                                   3064600        M06
001000000000040821CARMEN                                            HERNANDEZ MENDIVELSO                              23350030       F06
001000000000040831MARIA CAROLINA                                    DURAN CHACON                                      52250540       F06
001000000000040841AIDA LILIA                                        HIPUS DE TACHIRA                                  41721560       F06
001000000000040851RICARDO DE LEON                                   CAMPOS RIOS                                       7212830        M06
001000000000040861MARTHA PATRICIA                                   PEDREROS COLMENARES                               52025042       F06
001000000000040871ALEJANDRINA                                       CHACON AREVALO                                    51743809       F06
001000000000040881JOSE FRANCISCO                                    GARCIA CALUME                                     19230020       M06
001000000000040891YENNY ROCIO                                       RIVEROS SIERRA                                    52553159       F06
001000000000040901JOHN EDWAR                                        MOSQUERA HURTADO                                  11800524       M06
001000000000040911MARTHA ISABEL                                     ACOSTA ANGULO                                     52156461       F06
001000000000040921EDWIN YOBANY                                      VIVAS PEREZ                                       74185128       M06
001000000000040931CARMEN CECILIA                                    MONROY CASTILLO                                   41652661       F06
001000000000040941HARRINSONG MEGORKS                                OSPINA BARRAGAN                                   5971802        M06
001000000000040951MARTHA RUTH                                       RIVEROS MONJE                                     51593324       F06
001000000000040961LUIS EDUARDO                                      GARCIA BENAVIDES                                  7162946        M06
001000000000040971YADIRA EDITH                                      MUÑOZ MARULANDA                                   43150957       F06
001000000000040981BRYAN                                             BARRERA GARCIA                                    80133889       M06
001000000000040991LUIS EDUARDO                                      DIOSSA ARROYAVE                                   70515962       M06
001000000000041001GERMAN                                            VARON COTRINO                                     79308432       M06
001000000000010001PARTIDO LIBERAL COLOMBIANO                                                                                          07
001000000000010011HORACIO                                           SERPA URIBE                                       5554274        M07
001000000000010021VIVIANE ALEYDA                                    MORALES HOYOS                                     51637897       F07
001000000000010031ARLETH PATRICIA                                   CASADO DE LOPEZ                                   51701356       F07
001000000000010041ANDRES                                            CRISTO BUSTOS                                     13505004       M07
001000000000010051HECTOR HELI                                       ROJAS JIMENEZ                                     6757098        M07
001000000000010061ALVARO ANTONIO                                    ASHTON GIRALDO                                    8690558        M07
001000000000010071GUILLERMO ABEL                                    RIVERA FLOREZ                                     18125288       M07
001000000000010081EDINSON                                           DELGADO RUIZ                                      19289103       M07
001000000000010091SIGIFREDO                                         LOPEZ TOBON                                       6403002        M07
001000000000010101LUIS FERNANDO                                     VELASCO CHAVES                                    10546056       M07
001000000000010111GUILLERMO ANTONIO                                 SANTOS MARIN                                      14215940       M07
001000000000010121RODRIGO                                           VILLALBA MOSQUERA                                 19184765       M07
001000000000010131JAIME ENRIQUE                                     DURAN BARRERA                                     91067354       M07
001000000000010141ORLANDO                                           VELANDIA SEPULVEDA                                4234856        M07
001000000000010151SOFIA ALEJANDRA                                   GAVIRIA CORREA                                    42894998       F07
001000000000010161JORGE ENRIQUE                                     GONZALEZ GARNICA                                  11346231       M07
001000000000010171EUGENIO ENRIQUE                                   PRIETO SOTO                                       71621122       M07
001000000000010181JESUS IGNACIO                                     GARCIA VALENCIA                                   10523165       M07
001000000000010191MARCELA PATRICIA                                  POSADA ARBELAEZ                                   30318991       F07
001000000000010201GUILLERMO                                         GARCIA REALPE                                     12962290       M07
001000000000010211ALBERTO                                           PALMA CUERVO                                      14232816       M07
001000000000010221LUIS FERNANDO                                     DUQUE GARCIA                                      6789237        M07
001000000000010231JUAN ALFONSO                                      FIERRO MANRIQUE                                   9074129        M07
001000000000010241LUIS FRANCISCO                                    ANDRADE CHAVES                                    8352159        M07
001000000000010251ROBERTO JAIRO                                     JARAMILLO CARDENAS                                18389033       M07
001000000000010261LUZ YOLIMA                                        HERRERA MARTINEZ                                  52100798       F07
001000000000010271GUSTAVO                                           SAMPER FERNANDEZ DE SOTO                          79939085       M07
001000000000010281MARIA CRISTINA                                    GRANADOS VELASQUEZ                                41675759       F07
001000000000010291LUIS ESNORALDO                                    TORRES OCAMPO                                     5947239        M07
001000000000010301LIDIO ARTURO                                      GARCIA TURBAY                                     73547966       M07
001000000000010311WILLIAMS HENRY                                    MUÑOZ OSPINA                                      19381518       M07
001000000000010321GUSTAVO GUILLERMO                                 MONCAYO RINCON                                    5332835        M07
001000000000010331JUAN LUIS                                         CASTRO CORDOBA                                    71772016       M07
001000000000010341PEDRO MARY                                        MUVDI ARANGUENA                                   8735167        M07
001000000000010351HONORIO                                           GALVIS AGUILAR                                    13819045       M07
001000000000010361JOSE ABIGAIL                                      MIRANDA VIRGUEZ                                   19443249       M07
001000000000010371ARMANDO ANTONIO                                   DIAZ PEÑARANDA                                    72152282       M07
001000000000010381IVAN DARIO                                        OCAMPO TAMAYO                                     71606473       M07
001000000000010391JORGE EDUARDO                                     DURAN GALINDO                                     19586163       M07
001000000000010401MARTHA LILIANA                                    RUIZ ORDUZ                                        63308422       F07
001000000000010411OLGA JANETH                                       SUBA CHIVATA                                      52264329       F07
001000000000010421ARMANDO                                           CARDENAS                                          17105717       M07
001000000000010431JORGE ENRIQUE                                     GUTIERREZ TOBAR                                   79536846       M07
001000000000010441MARCO AURELIO                                     ARDILA GOMEZ                                      91221653       M07
001000000000010451RAUL                                              CARDONA GRISALES                                  79778311       M07
001000000000010461TOMAS ALBERTO                                     MENDOZA VILLEGAS                                  5013727        M07
001000000000010471MIGUEL ENRIQUE                                    AGUILERA HERNANDEZ                                79742885       M07
001000000000010481GWENDALEN ARGEMIRA                                ARENAS WIGHTMAN                                   39684178       F07
001000000000010491GERMAN RODRIGO                                    GUZMAN ACOSTA                                     70124194       M07
001000000000010501ROBERTO                                           ORTIZ URUEÑA                                      16661715       M07
001000000000010511MARIA AURORA                                      GARCIA RODRIGUEZ                                  51762301       F07
001000000000010521YOLANDA                                           SALGADO BLANCO                                    31967909       F07
001000000000010531PLUBIO GUDBERTO                                   NIÑO NIÑO                                         79266532       M07
001000000000010541ARTURO                                            PALACIOS ORTEGA                                   19418704       M07
001000000000010551JUDITH DEL CARMEN                                 PINEDO FLOREZ                                     45430423       F07
001000000000010561MARIA PUBENZA                                     ARBELAEZ SUA                                      51553926       F07
001000000000010571CARLOS HUMBERTO                                   PINZON MURIEL                                     70568324       M07
001000000000010581RENNY                                             RUEDA CASTAÑEDA                                   80084219       M07
001000000000010591MARIO EFRAIN                                      MUÑOZ ESPITIA                                     19057700       M07
001000000000010601MARIO ALBERTO                                     FERNANDEZ ALCOCER                                 92534585       M07
001000000000010611JHON JAIRO                                        ACUÑA PEREZ                                       79661279       M07
001000000000010631JAIME ENRIQUE                                     BEDOYA MONTOYA                                    70550090       M07
001000000000010641EUGENIA CATALINA                                  TRUJILLO CAMERO                                   51903762       F07
001000000000010651OLANO                                             PORTELA RODRIGUEZ                                 80414292       M07
001000000000010661CAROLINA                                          MORALES ROJAS                                     68304819       F07
001000000000010671NANCY DEL ROSARIO                                 GUERRERO RODRIGUEZ                                51737855       F07
001000000000010681ADRIANA                                           FRANCO CASTAÑO                                    30301736       F07
001000000000010691JUAN RICARDO                                      LOZANO AMAYA                                      79365900       M07
001000000000010701RUBE AURORA                                       GARCIA SANCHEZ                                    51957505       F07
001000000000010711CONSUELO                                          GRACIANO SIERRA                                   24486398       F07
001000000000010721INOCENCIO ELIECER                                 HURTADO RUIZ                                      76042536       M07
001000000000010731HUGO                                              VELEZ VALENCIA                                    10095875       M07
001000000000010741SONIA MARINA                                      MOSCOTE AROCA                                     42498428       F07
001000000000010751ANLET JAQUELINE                                   BENT ARCHBOLD                                     52057765       F07
001000000000010761CRISTINA DEL ROSARIO                              CABRERA MENDEZ                                    26585488       F07
001000000000010771JOSE LUIS                                         MAYORCA CASTILLA                                  79416243       M07
001000000000010781ARMANDO                                           VILLEGAS CENTENO                                  12576574       M07
001000000000010791CARLOS ALEJANDRO                                  MAYA AGUIRRE                                      12953751       M07
001000000000010801DARIO                                             ANGARITA MEDELLIN                                 11336334       M07
001000000000010811LUZ MARINA                                        ROMERO MOTTA                                      51988607       F07
001000000000010821KENT                                              FRANCIS JAMES                                     19120657       M07
001000000000010831JACK                                              GARCIA MORALES                                    94448677       M07
001000000000010841ANGELA TAYIRA                                     MATEUS GOMEZ                                      52424755       F07
001000000000010851ARIS MANUEL                                       TORRES DIAZ                                       78763447       M07
001000000000010861MERCEDES                                          CARDENAS BLANCO                                   51824881       F07
001000000000010871RICARDO                                           GARCIA GAITAN                                     17106701       M07
001000000000010881ELIZABETH                                         CASTILLO VARGAS                                   30319923       F07
001000000000010891CARMEN NUVIS                                      NOVA MIRANDA                                      22971365       F07
001000000000010901VICTORIA EUGENIA                                  VARGAS VIVES                                      32727098       F07
001000000000010911ANA MARIA                                         DIAZ                                              51670001       F07
001000000000010921ELKIN ENRIQUE                                     GARCIA BERNAL                                     17085300       M07
001000000000010931ANA ROSA                                          VELASQUEZ RICO                                    21213735       F07
001000000000010941ALEJANDRO                                         TIQUIDIMAS FERNANDEZ                              79432517       M07
001000000000010961JOSE ALFONSO                                      AREVALO ROJAS                                     3047570        M07
001000000000010971FANNY                                             PERALTA FONSECA                                   51712428       F07
001000000000010981JAIRO                                             MANTILLA COLMENARES                               79140407       M07
001000000000010991JAVIER TATO                                       ALVAREZ MONTENEGRO                                12962030       M07
001000000000011001JUAN MANUEL                                       GALAN PACHON                                      79589617       M07
001000000000090001PARTIDO DE LA U                                                                                                     08
001000000000090011WILLIAM JIMMY                                     CHAMORRO CRUZ                                     16695110       M08
001000000000090021FREDY JOSE                                        PADILLA DE LEON                                   9086447        M08
001000000000090031JORGE EDUARDO                                     GECHEN TURBAY                                     19171759       M08
001000000000090041CARLOS ROBERTO                                    FERRO SOLANILLA                                   11380217       M08
001000000000090051ROY LEONARDO                                      BARRERAS MONTEALEGRE                              79289575       M08
001000000000090061MARITZA                                           MARTINEZ ARISTIZABAL                              40383087       F08
001000000000090071ARMANDO ALBERTO                                   BENEDETTI VILLANEDA                               72148060       M08
001000000000090081MUSA                                              BESAILE FAYAD                                     15050612       M08
001000000000090091OSCAR MAURICIO                                    LIZCANO ARANGO                                    79960663       M08
001000000000090101JUAN PABLO                                        SALAZAR SALAMANCA                                 80084786       M08
001000000000090111JAIME ALONSO                                      ZULUAGA ARISTIZABAL                               4484211        M08
001000000000090121BERNARDO MIGUEL                                   ELIAS VIDAL                                       78741717       M08
001000000000090131ROOSVELT                                          RODRIGUEZ RENGIFO                                 16349270       M08
001000000000090141ASTRID                                            SANCHEZ MONTES DE OCA                             54254949       F08
001000000000090151MIGUEL                                            AMIN ESCAF                                        7445130        M08
001000000000090161MARTIN EMILIO                                     MORALES DIZ                                       73132907       M08
001000000000090171JOSE ALFREDO                                      GNECCO ZULETA                                     77184921       M08
001000000000090181PEDRO ANTONIO                                     AGUILAR RODRIGUEZ                                 16628950       M08
001000000000090191HERIKA YANETH                                     AGUIRRE PATIÑO                                    20370151       F08
001000000000090201MANUEL GUILLERMO                                  MORA JARAMILLO                                    13471210       M08
001000000000090211LUZ RUBIELA                                       RODRIGUEZ BAREÑO                                  24022782       F08
001000000000090221JOSE DAVID                                        NAME CARDOZO                                      72154961       M08
001000000000090231LORENA                                            SANCHEZ RAMOS                                     41917672       F08
001000000000090241ANGEL CUSTODIO                                    CABRERA BAEZ                                      19289239       M08
001000000000090251MILTON ARLEX                                      RODRIGUEZ SARMIENTO                               79592649       M08
001000000000090261ALFONSO RAFAEL                                    LEMAITRE SOLEIMAN                                 80422206       M08
001000000000090271ANIBAL                                            LOZANO GARCIA                                     18916794       M08
001000000000090281ANDRES RICARDO                                    CELIS SARMIENTO                                   79737522       M08
001000000000090291ARMANDO                                           LUGO MARTINEZ                                     19323082       M08
001000000000090301JULIO ERNESTO                                     ESTRADA RINCON                                    8354541        M08
001000000000090311ARMANDO                                           MORENO LOPEZ                                      11189321       M08
001000000000090321CARMEN LEIDIANA                                   GARCIA PASTRANA                                   32655624       F08
001000000000090331CARLOS EDUARDO                                    HERNANDEZ MOGOLLON                                13467099       M08
001000000000090341CARLOS ALBERTO                                    RAMIREZ ROJAS                                     80371972       M08
001000000000090351MARIA ALEJANDRA LILIANA                           TRUJILLO MONCALEANO                               51988010       F08
001000000000090361CARLOS ENRIQUE                                    SOTO JARAMILLO                                    10081067       M08
001000000000090371WILMAR ORLANDO                                    BARBOSA ROZO                                      86048894       M08
001000000000090381CARLOS ENRIQUE                                    FORERO SANCHEZ                                    5992754        M08
001000000000090391DIANA CAROLINA                                    CAÑON JOYA                                        52779761       F08
001000000000090401CAMILO ALBERTO                                    ENCISO VANEGAS                                    80086658       M08
001000000000090421MARGARITA MARIA                                   OROZCO TUIRAN                                     50896976       F08
001000000000090431EFVANNI PAOLA                                     PALMARINY PEÑARANDA                               39763551       F08
001000000000090441MARIA MIRTHA                                      ROMERO SEGURA                                     51650240       F08
001000000000090451FERNANDO                                          BALLESTEROS VALENCIA                              79274371       M08
001000000000090461GREGORIO                                          CARO MORENO                                       7163479        M08
001000000000090471GUILLERMO ALFONSO                                 PARRA RODRIGUEZ                                   79403933       M08
001000000000090481JOSE EDUARDO                                      POLANCO URQUINA                                   12133853       M08
001000000000090491JAIRO DUBAN                                       PINEDA NIÑO                                       17184193       M08
001000000000090501GERMAN DARIO                                      HOYOS GIRALDO                                     71679356       M08
001000000000090511YEZMID                                            AREVALO USME                                      38258659       F08
001000000000090521ISMAEL ANTONIO                                    GONZALEZ MOLINA                                   80440476       M08
001000000000090531MARIA ANDREA                                      NIETO ROMERO                                      52415399       F08
001000000000090551ROSA MARIA                                        CORCHO OLAYA                                      32762530       F08
001000000000090561JORGE IVAN                                        DAVILA DAZA                                       84036648       M08
001000000000090571JOSE OMAR                                         MARROQUIN SANCHEZ                                 2375057        M08
001000000000090581JUAN PABLO                                        HERRERA HUERTAS                                   80224859       M08
001000000000090591JULIO CESAR                                       PRADA VARON                                       93086886       M08
001000000000090601MANUEL MESIAS                                     ENRIQUEZ ROSERO                                   5240434        M08
001000000000090611JOSE NORBEY                                       SALAZAR SALAZAR                                   7553161        M08
001000000000090621LUIS FERNANDO                                     FRANCO PALACIOS                                   13484754       M08
001000000000090631LUIS FERNANDO                                     RESTREPO GOMEZ                                    79377279       M08
001000000000090641MARTHA LIZ                                        VEIRA MARTIN                                      52773315       F08
001000000000090651LUIS OSWALDO                                      BAUTISTA PULIDO                                   79604935       M08
001000000000090661CARLOS                                            CARDENAS ORTIZ                                    9655116        M08
001000000000090671LUZ MARCELA                                       CORREA ZULETA                                     50932889       F08
001000000000090681JOHN GILBERTO                                     LOAIZA GOMEZ                                      79881887       M08
001000000000090691MONICA                                            FORERO HERNANDEZ                                  52347768       F08
001000000000090701OLGA MERCEDES                                     CHINCHILLA MORALES                                51812629       F08
001000000000090711MAURICIO                                          VILLABONA SUAREZ                                  16771170       M08
001000000000090721LEIDY ANDREA                                      FEO MAHECHA                                       53009898       F08
001000000000090731LYDA INGRID MARCELA                               MOLANO CASIANO                                    52886388       F08
001000000000090741ADRIANA PATRICIA                                  SAAVEDRA GUZMAN                                   52250196       F08
001000000000090751EDWARD                                            GARNICA MONTAÑEZ                                  80050287       M08
001000000000090761NUVIOLA                                           CIRO GOMEZ                                        43251991       F08
001000000000090771NANCY STELLA                                      VERGARA MUÑOZ                                     52208604       F08
001000000000090781OLGA INES                                         INFANTE VELASCO                                   39541773       F08
001000000000090791JUAN CARLOS                                       RODRIGUEZ CEBALLOS                                92503401       M08
001000000000090801EDUARDO ENRIQUE                                   PULGAR DAZA                                       72161298       M08
001000000000090811OSCAR ALEXANDER                                   RODRIGUEZ BAEZ                                    79839213       M08
001000000000090821OSWALDO                                           FIGUEROA RODRIGUEZ                                19339930       M08
001000000000090831ROBERTO LUIS                                      MONSALVO RODRIGUEZ                                79947412       M08
001000000000090841EDNA PATRICIA                                     VIRGUEZ BARRETO                                   51883996       F08
001000000000090851ANDRES FELIPE                                     GARCIA ZUCCARDI                                   73199285       M08
001000000000090861WILMER ANDREY                                     DAZA IBARRA                                       80116838       M08
001000000000090871YUDY ANDREA                                       PATARROYO ARIAS                                   53071270       F08
001000000000090881LUZ MARGOTH                                       ROJAS ABAUNZA                                     52091246       F08
001000000000090891YESID                                             RIVERA BARRAGAN                                   17345658       M08
001000000000090901GEMA                                              LOPEZ DE JOAQUI                                   34532991       F08
001000000000090911ALVARO ARLES                                      RENDON HENAO                                      98529430       M08
001000000000090941LUIS FERNANDO                                     RODRIGUEZ SEPULVEDA                               4102190        M08
001000000000090951JOSE ANTONIO                                      JIMENEZ JIMENEZ                                   875857         M08
001000000000090961ADOLFO LEON                                       RENGIFO SANTIBAÑEZ                                16212999       M08
001000000000090971TITO EDMUNDO                                      RUEDA GUARIN                                      17007665       M08
001000000000090981MARIA ALEJANDRA                                   MAYA ERASO                                        59310465       F08
001000000000090991SANDRA ELENA                                      VILLADIEGO VILLADIEGO                             45490208       F08
001000000000091001YOHANA                                            SALAMANCA JIMENEZ                                 52385508       F08
001000000000050001PARTIDO ALIANZA VERDE                                                                                               09
001000000000050011ANTONIO JOSE                                      NAVARRO WOLFF                                     14948629       M09
001000000000050021JORGE EDUARDO                                     LONDOÑO ULLOA                                     19455957       M09
001000000000050031JORGE ELIECER                                     GUEVARA                                           17627893       M09
001000000000050041ARALDO ANTONIO                                    LOPEZ HERAZO                                      6873769        M09
001000000000050051WITNEY                                            CHAVEZ SANCHEZ                                    14979866       M09
001000000000050061SANDRA PATRICIA                                   CRUZ FONTECHA                                     52546025       F09
001000000000050071JONAS RICARDO                                     ROMERO SANCHEZ                                    13008465       M09
001000000000050081DANILO                                            VILLAFAÑA TORRES                                  85467812       M09
001000000000050091NESTOR DANIEL                                     GARCIA COLORADO                                   89008959       M09
001000000000050101CLAUDIA NAYIBE                                    LOPEZ HERNANDEZ                                   51992648       F09
001000000000050111JORGE IVAN                                        OSPINA GOMEZ                                      6342414        M09
001000000000050121FELIX JOSE                                        VALERA IBAÑEZ                                     77026690       M09
001000000000050131RIVER FRANKLIN                                    LEGRO SEGURA                                      16639993       M09
001000000000050141ALVARO                                            PEREZ VIDES                                       91421091       M09
001000000000050151EVELIO JOSE                                       DAZA DAZA                                         12711181       M09
001000000000050161NATALIA                                           PARRA OSORIO                                      52700824       F09
001000000000050171JORGE IGNACIO                                     GARCIA GONZALEZ                                   79100447       M09
001000000000050181SAMUEL                                            DIAZ ESCANDON                                     5963255        M09
001000000000050191GRICERIO                                          PERDOMO VELEZ                                     14877569       M09
001000000000050201CARMEN DAVID                                      QUINTERO GELVEZ                                   13379328       M09
001000000000050211PEDRO JOSE                                        ARENAS GARCIA                                     18222525       M09
001000000000050231CEFERINO                                          MOSQUERA MURILLO                                  16473555       M09
001000000000050241FERNANDO DE JESUS                                 ALVAREZ CORREDOR                                  19293267       M09
001000000000050251EDWIN                                             SALCEDO VASQUEZ                                   73130630       M09
001000000000050261ERWING REINALDO                                   RODRIGUEZ-SALAH                                   91255462       M09
001000000000050271MARLENE                                           ZAMBRANO PADILLA                                  41103144       F09
001000000000050291DAVIDSON FOURIER                                  ARISTIZABAL GUERRA                                91231762       M09
001000000000050301CESAR HERNANDO                                    MAHECHA                                           79892103       M09
001000000000050311OLIMPO NAYITH                                     OCHOA                                             17803266       M09
001000000000050321ELINA JUDITH                                      RODRIGUEZ AGUILAR                                 40924860       F09
001000000000050331HORACIO                                           CORREA GARRIDO                                    73078277       M09
001000000000050341FERNANDO JOSE GREGORIO                            PERNIA MALDONADO                                  79532035       M09
001000000000050351FAUSTINA                                          MANRIQUE RAMIREZ                                  24030050       F09
001000000000050361JOSE DE JESUS                                     LUJAN ZAPATA                                      3334431        M09
001000000000050371MARTHA EUGENIA                                    BOTERO TERREROS                                   41410249       F09
001000000000050381CARLOS ARTURO                                     LOZANO GUILLEN                                    14203144       M09
001000000000050391JOHN JAIRO                                        GIRON BERMUDEZ                                    16773544       M09
001000000000050401VICTOR MANUEL                                     BEJARANO BUSTOS                                   79290857       M09
001000000000050411DALIA FERNANDA                                    PINEDA AGUASACO                                   52999264       F09
001000000000050421LAYS YESSENIA                                     MOSQUERA CHAMORRO                                 52283801       F09
001000000000050431LAZARO VICTOR                                     DIX SANCHEZ                                       9054164        M09
001000000000050441JOSE                                              BERNAL GARCIA                                     13490065       M09
001000000000050451MARTHA LUCIA                                      CUELLAR DE SANJUAN                                51562629       F09
001000000000050461LUIS FERNANDO                                     ARISTIZABAL TABARES                               71644904       M09
001000000000050471LUIS FERNANDO                                     OLIVARES RODRIGUEZ                                19473280       M09
001000000000050481LUZ FANY                                          ZAMBRANO SORACA                                   46368876       F09
001000000000050491JULIO ALBERTO                                     RAMIREZ CRUZ                                      79238705       M09
001000000000050501ALEJANDRO                                         MEZA CARDALES                                     73168913       M09
001000000000050511PEDRO ENRIQUE                                     CASTAÑEDA LEON                                    80277557       M09
001000000000050521SILVIA PATRICIA                                   VALBUENA PALLARES                                 63281469       F09
001000000000050531ENGELBERTO                                        DIAZ HURTADO                                      6078851        M09
001000000000050541MANUEL JULIAN                                     ACOSTA BARROS                                     72198592       M09
001000000000050551NINI                                              GRANADILLO GOMEZ                                  51775090       F09
001000000000050561FABIO ALBERTO                                     CARRILLO BOTELLO                                  88267633       M09
001000000000050571JULIO CESAR                                       ARDILA                                            94225956       M09
001000000000050581TARSICIO                                          RIVERA MUÑOZ                                      10524441       M09
001000000000050591SERGIO ALFONSO                                    GONZALEZ LEON                                     19125475       M09
001000000000050601FRANCISCO FERNANDO                                COVALEDA HERRERA                                  93287336       M09
001000000000050611DORIS JOSEFINA                                    ORJUELA PEÑA                                      33449612       F09
001000000000050621JULIO RAFAEL                                      ARIAS MORENO                                      17198466       M09
001000000000050631JHON MANUEL                                       PRECIADO                                          79783761       M09
001000000000050641JUAN PABLO FERNANDO                               DIAZ RUBIO                                        19372850       M09
001000000000050651GLADYS                                            DELGADO DE RODRIGUEZ                              29011452       F09
001000000000050661HUMBERTO ALIRIO                                   VALERO MAYORGA                                    3019747        M09
001000000000050671RUBY STELLA                                       MORALES SIERRA                                    51684570       F09
001000000000050681FLOR                                              VALERIO GOMEZ                                     63496284       F09
001000000000050691ORLANDO                                           MOSQUERA FORERO                                   7556264        M09
001000000000050701PEDRO NAIRO                                       VERGARA NIÑO                                      79542934       M09
001000000000050711BLANCA NELSY                                      SEPULVEDA SANCHEZ                                 41440253       F09
001000000000050721LUKAS                                             PASOS ABADIA                                      75086786       M09
001000000000050731FANNY CECILIA                                     ROMERO ROJAS                                      41771574       F09
001000000000050741LUIS ENRIQUE                                      OLIVERA PETRO                                     6857036        M09
001000000000050751FABIO                                             CIFUENTES CERON                                   19266864       M09
