001103000001040011JUAN JOSE                                         ACUÑA COLPAS                                      3758662        M01
001103000000480021JUAN ALBERTO                                      GARCIA ESTRADA                                    9173482        M02
001103000000120031RETIRADO                                          (A)                                               72150598       M03
001103000002080041ALFREDO ESTEBAN                                   VARELA DE LA ROSA                                 8511671        M04
001103000000010051EDUARDO IGNACIO                                   VERANO DE LA ROSA                                 7458361        M05
001105000007760011RETIRADO                                          (A)                                               33173299       F01
001105000000090021YOLANDA                                           WONG BALDIRIS                                     45760403       F02
001105000000010031DUMEK JOSE                                        TURBAY PAZ                                        73547859       M03
001105000000140041COMITE PROMOTOR                                   VOTO EN BLANCO                                    99999993       M04
001112000002070011ARTURO RAFAEL                                     CALDERON RIVADENEIRA                              77036038       M01
001112000000090021FRANCISCO FERNANDO                                OVALLE ANGARITA                                   79340571       M02
001112000005650031IMELDA                                            DAZA COTES                                        41419142       F03
001113000008400011EDWIN JOSE                                        BESAILE FAYAD                                     78739340       M01
001113000000050021NICOLAS REINEL                                    PICON BARRERA                                     79380040       M02
001113000000040031CARLOS DAVID                                      GOMEZ ESPITIA                                     80091894       M03
001121000000040011ROSA                                              COTES DE ZUÑIGA                                   36539388       F01
001121000000120021JORGE LUIS                                        LOPEZ AGUILAR                                     85461805       M02
001121000000010031JOAQUIN JOSE                                      VIVES PEREZ                                       12556245       M03
001128000000030011MILENE                                            JARAVA DIAZ                                       64575021       F01
001128000000130021JUAN MIGUEL                                       NAVARRO NAVARRO                                   92031271       M02
001128000000040031EDGAR ENRIQUE                                     MARTINEZ ROMERO                                   6808462        M03
001128000000120041NADIM ISAAC                                       MISERQUE CARDENAS                                 92505114       M04
001148000000090011OVIDIO                                            MEJIA MARULANDA                                   12542246       M01
001148000000040021ONEIDA RAYETH                                     PINTO PEREZ                                       56053991       F02
002103000000040001PARTIDO CAMBIO RADICAL                                                                                              01
002103000000040511SERGIO ENRIQUE                                    BARRAZA MORA                                      8766653        M01
002103000000040521ADALBERTO EMILIO                                  LLINAS DELGADO                                    8738141        M01
002103000000040531JORGE LUIS                                        ROSALES STEEL                                     8732698        M01
002103000000040541CAMILO JOSE                                       ROA MERCADO                                       8643773        M01
002103000000040551ESTEFANO RAUL                                     GONZALEZ DIAZ GRANADOS                            1140815218     M01
002103000000040561RUMMENIGGE                                        MONSALVE ALVAREZ                                  72053180       M01
002103000000040571DALILA DEL SOCORRO                                VILLARREAL JARABA                                 22449732       F01
002103000000040581MONICA ANDREA                                     MORENO LONDOÑO                                    32781079       F01
002103000000040591NERILDA ISABEL                                    CARE PARRA                                        22500450       F01
002103000000040601JOAQUIN ALONSO                                    ALZAMORA GIRALDO                                  12550335       M01
002103000000040611DAGOBERTO                                         CANTILLO MANOTAS                                  72268822       M01
002103000000040621YOMAIRA                                           PORRAS RAMOS                                      45694592       F01
002103000000040631YESENIA CECILIA                                   SAUCEDO MERCADO                                   22570217       F01
002103000000040641GERSEL LUIS                                       PEREZ ALTAMIRANDA                                 72274161       M01
002103000000020001PARTIDO CONSERVADOR COLOMBIANO                                                                                      02
002103000000020511MARGARITA MARIA                                   BALEN MENDEZ                                      42869022       F02
002103000000020521ESTELIO                                           AMOR DAZA                                         72171322       M02
002103000000020531FEDERICO ANTONIO                                  UCROS FERNANDEZ                                   72150314       M02
002103000000020541PAOLA ANDREA                                      CARVAJAL RODADO                                   22648959       F02
002103000000020551CARLOS ARTURO                                     ZAMBRANO PALACIO                                  12591170       M02
002103000000020571MERLY DEL SOCORRO                                 MIRANDA BENAVIDES                                 32798346       F02
002103000000020581JORGE LUIS                                        RANGEL BELLO                                      8713000        M02
002103000000020591GERARDO ALFONSO                                   DE LA CERDA CARO                                  72123609       M02
002103000000050001PARTIDO ALIANZA VERDE                                                                                               03
002103000000050511HECTOR IGNACIO                                    RESTREPO NAME                                     8667883        M03
002103000000050521SANTANDER                                         AGUILAR VILLA                                     72191762       M03
002103000000050531AURA MARGARITA                                    VILLA SIERRA                                      33108640       F03
002103000000050541EDITH MARIA                                       HEREDIA PIÑERES                                   22387502       F03
002103000000050551GICELLA JANETH                                    MOLINA GOMEZ                                      22466898       F03
002103000000050561CARLOS MARIO                                      HOYOS MORALES                                     78739603       M03
002103000000050571ELSON YAIR                                        FLORIAN MOLINA                                    72056495       M03
002103000000050581DONALDO DE JESUS                                  GONZALEZ ROJAS                                    19788840       M03
002103000000050591EDINAEL                                           LAZARO TELLEZ                                     19586412       M03
002103000000050601ORLANDO GUSTAVO                                   DE LA HOZ BERNAL                                  8663736        M03
002103000000050611ILIANA TERESA                                     DE LA ROSA CEDRON                                 64920886       F03
002103000000050621MANUEL TOMAS                                      SARABIA CASSIANI                                  72001557       M03
002103000000050631ERWIN ENRIQUE                                     BAENA LOZANO                                      72253379       M03
002103000000120001PARTIDO CENTRO DEMOCRÁTICO                                                                                          04
002103000000120511STEPHANIE                                         SCHUTT CHACON                                     1140857376     F04
002103000000120521MARIA ALEJANDRA                                   NORIEGA CASALINS                                  1041896652     F04
002103000000120531ANGELMIRO                                         ALVARADO MENDIETA                                 12228771       M04
002103000000120541ABDUL MAURICIO                                    HARB GOMEZ                                        72171895       M04
002103000000120551GABRIEL ANTONIO                                   SAGBINI CONSUEGRA                                 7449724        M04
002103000000120561YANILA MARIA                                      VILLARREAL MENDOZA                                55302599       F04
002103000000120571GIBSON LUMAR                                      CABALLERO GUTIERREZ                               8530480        M04
002103000000120581PABLO LEON                                        SANTORO TRUJILLO                                  19442542       M04
002103000000120591JESUS                                             DE LOS REYES SARMIENTO                            8632453        M04
002103000000120601JOSE LUIS                                         RUIZ PAEZ                                         72201902       M04
002103000000110001PARTIDO UNIÓN PATRIÓTICA                                                                                            05
002103000000110511HUMBERTO                                          MUÑOZ TEJADA                                      8535474        M05
002103000000110521YAZMINE                                           CURE CASTILLO                                     22448164       F05
002103000000110531LUIS ARNULFO                                      CRUZ OROZCO                                       7460767        M05
002103000000010001PARTIDO LIBERAL COLOMBIANO                                                                                          06
002103000000010511DAVID RAMON                                       ASHTON CABRERA                                    72245750       M06
002103000000010521LOURDES DEL ROSARIO                               LOPEZ FLOREZ                                      34977620       F06
002103000000010531SOCRATES DE JESUS                                 CARTAGENA LLANO                                   8713512        M06
002103000000010541CLAUDIO RAFAEL                                    GOMEZ MARTINEZ                                    8537872        M06
002103000000010551ALDO RAFAEL                                       FONTALVO VASQUEZ                                  8708602        M06
002103000000010561AUDES ESTELLA                                     JIMENEZ GONZALEZ                                  32818033       F06
002103000000010571GUSTAVO                                           ALVAREZ CABARCAS                                  9061785        M06
002103000000010581WILSON RAFAEL                                     RUDAS PERTUZ                                      72127007       M06
002103000000010591GUSTAVO EMILIO                                    SANTIZ GONZALEZ                                   72125836       M06
002103000000010601MANUEL VICENTE                                    LLINAS OSORIO                                     8696295        M06
002103000000010611ROBERT GREGORY                                    ROA CASTAÑEDA                                     8769764        M06
002103000000010621ERIKA ISABEL                                      CUELLO ARRIETA                                    1044430432     F06
002103000000010631KATERINE PAOLA                                    TURIZO RAMIREZ                                    1143253584     F06
002103000000010641GABRIELA AYLIN                                    PHEREZ BOUDE                                      1140888216     F06
002103000000100001PARTIDO POLO DEMOCRÁTICO ALTERNATIVO                                                                                07
002103000000100511RODOLFO                                           PONTON TORRES                                     8667000        M07
002103000000100521RAMIRO JOSE                                       ESPITIA GONZALEZ                                  10938514       M07
002103000000100531ELINA JUDITH                                      RODRIGUEZ AGUILAR                                 40924860       F07
002103000000100541MARIA ELENA                                       LARA MANGA                                        22443579       F07
002103000000100551CINDY CAROLINA                                    VIDES POLO                                        22713291       F07
002103000000100561FERNANDO ALFONSO                                  OÑORO PATERNINA                                   8698019        M07
002103000000100571EDGAR DE JESUS                                    GIL GUERRERO                                      3742189        M07
002103000000100581NORMAN JAVIER                                     ALARCON RODAS                                     8319887        M07
002103000000100591YAQUELINE                                         ORELLANO PACHECO                                  22494027       F07
002103000000100601ELMER ENRIQUE                                     RUDAS MENCO                                       72140006       M07
002103000000100611ARGEMIRO RAFAEL                                   ANDRADE MEDINA                                    73543150       M07
002103000000100621LASCARIO ANTONIO                                  HUMANEZ CAMPO                                     6873985        M07
002103000000070000PARTIDO ALIANZA SOCIAL INDEPENDIENTE                                                                                08
002103000000070010EMERITA DEL SOCORRO                               MEZA BARRIOS                                      32664466       F08
002103000000070020LUZ DIVINA                                        FERNANDEZ PEÑA                                    32787804       F08
002103000000070030ASTRID DEL CARMEN                                 BARRIOS DONADO                                    32666331       F08
002103000000070040MIREYA EDITH                                      OROZCO AYALA                                      32733071       F08
002103000000070050EVELIN DEL SOCORRO                                ORTIZ MEZA                                        32694688       F08
002103000000070060YADIRA JUDITH                                     CASTRO DE DE LA ROSA                              22449733       F08
002103000000070070MARIA EUGENIA                                     PEREZ BARRAZA                                     32626173       F08
002103000000070080IVAN EMILIO                                       NOGUERA GONZALEZ                                  8683545        M08
002103000000070090DANIEL ENRIQUE                                    VARGAS PARRA                                      8692385        M08
002103000000070100NADIS ESTHER                                      RUA FONTALVO                                      22434627       F08
002103000000070110RITA ISABEL                                       DE LA TORRE CONRADO                               22690296       F08
002103000000070120RICARDO ENRIQUE                                   CABALLERO GONZALEZ                                8747547        M08
002103000000070130CRISTO RAFAEL                                     GUERRA NAVARRO                                    7421309        M08
002103000000070140ERIS ENRIQUE                                      ESCORCIA BENAVIDES                                72193753       M08
002103000000090001PARTIDO DE LA U                                                                                                     09
002103000000090511LILIA ESTHER                                      MANGA SIERRA                                      32668830       F09
002103000000090521JUAN JACOBO                                       MANOTAS ROA                                       8630373        M09
002103000000090531EDGAR ENRIQUE                                     PALACIO MIZRAHI                                   85459384       M09
002103000000090541CRISTIAN MANUEL                                   SANJUAN BONILLA                                   88144717       M09
002103000000090551LISSETTE KARINA                                   LLANOS TORRES                                     22583157       F09
002103000000090561YESSID ENRIQUE                                    PULGAR DAZA                                       8761461        M09
002105000000050001PARTIDO ALIANZA VERDE                                                                                               01
002105000000050511SADY LUZ                                          PAREDES CARREAZO                                  45476709       F01
002105000000050521JESUS                                             REYES GOSSELIN                                    9139664        M01
002105000000050541FABIO DE JESUS                                    PALACIOS PALENCIA                                 1194713289     M01
002105000000050551ARMANDO LUIS                                      CORDOBA JULIO                                     3806696        M01
002105000000050561RUBY ESTER                                        FORTICH ALARCON                                   33158166       F01
002105000000050601FEDERICO CARLOS                                   OCHOA LORDUY                                      9094845        M01
002105000000050611ROMAN ENRIQUE                                     TORRES REDONDO                                    3861098        M01
002105000000050631DAGOBERTO                                         POLO FLOREZ                                       8850252        M01
002105000000050641OLGA BEATRIZ                                      ESPITIA DIAZ                                      30777844       F01
002105000000110001PARTIDO UNIÓN PATRIÓTICA                                                                                            02
002105000000110531ROQUE LUIS                                        MONTERROSA SALCEDO                                8852903        M02
002105000000110591FRINY MARCELA                                     TORRES CONTRERAS                                  1143347124     F02
002105000000090001PARTIDO DE LA U                                                                                                     03
002105000000090511CARLOS ANDRES                                     FERNANDEZ ADUEN                                   73181445       M03
002105000000090521CARLOS JAVIER                                     BUELVAS PERTUZ                                    9178765        M03
002105000000090531DELMIS MANUEL                                     FLOREZ LASTRE                                     9020790        M03
002105000000090541MARIA ANTONIA                                     FRANCO NUÑEZ                                      1047434317     F03
002105000000090551JORGE                                             RODRIGUEZ SOSA                                    19292475       M03
002105000000090561DARLY                                             MOLINA DIAZ                                       45522540       F03
002105000000090571LEYDIS JOHANA                                     MUÑOZ SALAS                                       1047462021     F03
002105000000090581KAROL EDITH                                       GONZALEZ SANTAMARIA                               22808792       F03
002105000000090591CANDELARIO                                        VILLAMIL QUIROZ                                   73095905       M03
002105000000090601FRANK                                             RICAURTE SOSSA                                    73169356       M03
002105000000090611JAVIER DEL CRISTO                                 DE LA PARRA ALVARADO                              73100229       M03
002105000000090621YESENIA PAOLA                                     ORTEGA MORALES                                    1047413615     F03
002105000000090631DIANA ISABEL                                      VARGAS LOZANO                                     39011800       F03
002105000000090641LUIS BIENVENIDO                                   PADILLA SIERRA                                    73078703       M03
002105000000100001PARTIDO POLO DEMOCRÁTICO ALTERNATIVO                                                                                04
002105000000100511LUIS CARLOS                                       FUENTES PEREZ                                     9065081        M04
002105000000100521ISELA                                             BELTRAN MENDOZA                                   45694472       F04
002105000000100531VICTOR RAFAEL                                     ACUÑA PEREZ                                       19789041       M04
002105000000100541LUIS ALFREDO                                      VASQUEZ REYES                                     9173673        M04
002105000000100551LUZMILA                                           MATUTE TURIZO                                     33210146       F04
002105000000100561SILVIO MANUEL                                     ATENCIA LOZANO                                    9141832        M04
002105000000040001PARTIDO CAMBIO RADICAL                                                                                              05
002105000000040511VICTOR HUGO                                       MENDOZA SALEME                                    73207466       M05
002105000000040521EUGENIO RAFAEL                                    MARTINEZ MORA                                     73158312       M05
002105000000040531AMELIA DEL ROSARIO                                ALANDETE DE PEREZ                                 42201391       F05
002105000000040551LIBARDO ANTONIO                                   SIMANCAS GUARDO                                   7937547        M05
002105000000040561HECTOR HIDEL                                      AMAYA FERRUCHO                                    19870017       M05
002105000000040571DIOSELINA                                         NARVAEZ MEZA                                      45761260       F05
002105000000040581JUDITH DEL CARMEN                                 AGUILAR DE HORTA                                  45537001       F05
002105000000040591YANIRIS                                           GARCIA MEZA                                       42786478       F05
002105000000040601MANUEL JESUS                                      BERRIO SCAFF                                      73196313       M05
002105000000040611LINEY                                             MENDOZA DE LA CRUZ                                33104993       F05
002105000000040621JORGE ALFONSO                                     REDONDO SUAREZ                                    73132844       M05
002105000000120001PARTIDO CENTRO DEMOCRÁTICO                                                                                          06
002105000000120511ENRIQUE                                           CABRALES BAQUERO                                  1002241155     M06
002105000000120521JOSE LUIS                                         OCHOA RANGEL                                      1051736501     M06
002105000000120531DELBIS ESTHER                                     MARTELO BARRIENTOS                                45445000       F06
002105000000120541MARIA DE LA CONCEPCION                            TORRES BRIEVA                                     33105222       F06
002105000000120551MANUEL JACOBO                                     FONSECA AVENDAÑO                                  7920822        M06
002105000000120561JORGE ENRIQUE                                     BLANCO TAJAN                                      73149096       M06
002105000000120571MARIO AUGUSTO                                     DEL CASTILLO MONTALVO                             92255662       M06
002105000000120581KISSY JOHANNA                                     MORENO BARRAGAN                                   22519520       F06
002105000000120591FRANCISCO JOSE                                    GIL RESTREPO                                      70556837       M06
002105000000120601NELSON GUILLERMO                                  SARAH MARTINEZ                                    1128059615     M06
002105000000120611YENIS CAROLINA                                    BARBUR URUETA                                     45550805       F06
002105000000120621MYRIAM VIRGINIA                                   CASAS COTES                                       45756557       F06
002105000000120631ELIGIO MANUEL                                     ALVAREZ ARRIETA                                   15662429       M06
002105000000120641DAIRO RAMON                                       SERRANO LEONES                                    73141326       M06
002105000000070001PARTIDO ALIANZA SOCIAL INDEPENDIENTE                                                                                07
002105000000070511LORRAINE PAOLA                                    MORALES PINTO                                     1032453625     F07
002105000000070521LUIS ENRRIQUE                                     CASTRO MIRANDA                                    73118149       M07
002105000000070531AMPARO                                            TOLOZA CAMPUZANO                                  37720911       F07
002105000000070541ENRIQUE MANUEL                                    SALAS PANTOJA                                     73570281       M07
002105000000070551HERNAN ALBERTO                                    UTRIA CORONELL                                    8722910        M07
002105000000070561MARIA CONSUELO                                    QUINTERO GIL                                      43421997       F07
002105000000070571ANDREA CAROLINA                                   SALOM OLIVO                                       1047485454     F07
002105000000070581ELISEO                                            GUALDRON LEON                                     2169484        M07
002105000000070591ANDREA CAROLINA                                   NARVAEZ CAMPO                                     1128047570     F07
002105000000070601CARLOS ANDRES                                     MONTERROSA BAQUERO                                1128047373     M07
002105000000070611LUCAS JOSE                                        PUELLO CABEZA                                     1047447137     M07
002105000000070621MANUEL ANTONIO                                    VARGAS CABALLERO                                  9050731        M07
002105000000070631SILFREDO                                          PADILLA HERRERA                                   9148920        M07
002105000000070641HECTOR SEGUNDO                                    PEREZ FERNANDEZ                                   9284064        M07
002105000000030001PARTIDO OPCIÓN CIUDADANA                                                                                            08
002105000000030511LUCILA                                            VANEGAS LOPEZ                                     33309782       F08
002105000000030521LUZ ELIANA                                        PANIZA MANJARRES                                  1007236471     F08
002105000000030531MARGARET                                          QUIÑONEZ CALDERA                                  49661765       F08
002105000000030551JAIRO                                             OROZCO CASTAÑO                                    73123410       M08
002105000000030561ORLANDO RAMON                                     TORRES CARO                                       9173275        M08
002105000000030571EMIRO                                             TORO PALOMINO                                     9272099        M08
002105000000030581LIBARDO                                           BELLO MEDINA                                      9085774        M08
002105000000030591ISAAC ENRIQUE                                     NUÑEZ CASTRO                                      1047378870     M08
002105000000030601JAIRO                                             ALVARINO RIOS                                     73151185       M08
002105000000030611YIMY JORGE                                        FERNANDEZ NAAR                                    78764408       M08
002105000000030621MIGUEL ANGEL                                      REGUILLO VASQUEZ                                  1047395077     M08
002105000000030631NATALIA                                           JAZIME OVIEDO                                     1143370667     F08
002105000000030641LIA MARGARITA                                     MUÑOZ RANGEL                                      45693105       F08
002105000000020001PARTIDO CONSERVADOR COLOMBIANO                                                                                      09
002105000000020511ANDRES GUILLERMO                                  MONTES CELEDON                                    1047394814     M09
002105000000020521VINICIO DE JESUS                                  TAFUR DIAZ                                        73093173       M09
002105000000020531EVA EUGENIA                                       MARRUGO MANJARREZ                                 32939231       F09
002105000000020541RAUL ALBERTO                                      DOMINGUEZ GOMEZ                                   3791198        M09
002105000000020551ADAN DE JESUS                                     TORRES YARZAGARAY                                 73182361       M09
002105000000020561YAMIL ANTONIO                                     BERRIO SCAFF                                      1047447857     M09
002105000000020571RICHARD ORLANDO                                   COBA VACA                                         7923860        M09
002105000000020581DORA EUGENIA                                      GOMEZ PAYARES                                     45563952       F09
002105000000020591JORLEY ISABEL                                     RESTREPO VARGAS                                   1047433964     F09
002105000000020601ORLANDO                                           BLANQUICETT CASTRO                                73093924       M09
002105000000020611LINDA SUSANA                                      JIMENEZ CASTELLON                                 1047421640     F09
002105000000020621LUZ KARINA                                        GARRIDO ALVAREZ                                   45514235       F09
002105000000020631CLAUDIA JOHANNA                                   RAMIREZ NIÑO                                      45525117       F09
002105000000020641MIGUEL ROBERTO                                    CUETER JERESATY                                   73141658       M09
002105000000060001MOVIMIENTO AUTORIDADES INDÍGENAS DE COLOMBIA                                                                        10
002105000000060511HUGO REINALDO                                     RADA GAMARRA                                      19792449       M10
002105000000060521FRANKLIN                                          DE LA ROSA MARQUEZ                                9098277        M10
002105000000060531MILDRETH                                          DELA PUENTE QUIROZ                                1128048860     F10
002105000000060541LEMAR                                             VEGA MERCADO                                      45454858       F10
002105000000060551FRANCISCO                                         JIMENEZ MARRUGO                                   9077999        M10
002105000000060561EDILBERTO                                         DIX ORTEGA                                        9289021        M10
002105000000060581TANIA ELENA                                       SEGURA TORRES                                     45510477       F10
002105000000060601CESAR EUGENIO                                     FORTICH PALENCIA                                  9092539        M10
002105000000060611JOSE DE JESUS                                     PINZON QUINTERO                                   73078241       M10
002105000000060641REVOCADO                                          (A)                                               7937739        M10
002105000000010001PARTIDO LIBERAL COLOMBIANO                                                                                          11
002105000000010511VERONICA MARIA                                    PAYARES VASQUEZ                                   1047435363     F11
002105000000010521MELANIA ESTHER                                    ALVAREZ LAMBRAÑO                                  1104010186     F11
002105000000010531PEDRO JOSSEPH                                     ARIZA BUITRAGO                                    80548087       M11
002105000000010541MANUEL RAMON                                      BULA BULA                                         15038710       M11
002105000000010551IGNACIO JAVIER                                    BECERRA BAÑOS                                     73195845       M11
002105000000010561ELKIN ANTONIO                                     BENAVIDES AGUAS                                   9096263        M11
002105000000010571FABIOLA ISABEL                                    CORDOBA MARULANDA                                 45593420       F11
002105000000010581CLEOTILDE MARIA                                   ALVAREZ VERGARA                                   33195564       F11
002105000000010591FREDY ENRIQUE                                     TORRES ZAPATA                                     73112346       M11
002105000000010601JOSE HILARIO                                      BOSSIO PEREZ                                      7886348        M11
002105000000010611DANIEL ANTONIO                                    VARGAS DIAZ                                       1047404165     M11
002112000000020001PARTIDO CONSERVADOR COLOMBIANO                                                                                      01
002112000000020511CAMILO ANDRES                                     LACOUTURE ACKERMAN                                77034200       M01
002112000000020521JOSE MARIO                                        RODRIGUEZ BARRIGA                                 1065583512     M01
002112000000020531SALLY                                             DITTA HERNANDEZ                                   49792945       F01
002112000000020541JORGE EDUARDO                                     DIAZ REVOLLO                                      12687716       M01
002112000000020561EDINSON                                           CAMARILLO TROYA                                   12644085       M01
002112000000020571DIOMAR                                            CLARO MARQUEZ                                     91271802       M01
002112000000020581KAREN LORENA                                      VILLALBA VILLEGAS                                 1065655272     F01
002112000000020591URIDIS                                            LAGO MAESTRE                                      49748715       F01
002112000000020601FELIPE ENRIQUE                                    GUERRA OLIVELLA                                   77161164       M01
002112000000020611CARLOS DANIEL                                     ROCHA QUINTERO                                    91531151       M01
002112000000120000PARTIDO CENTRO DEMOCRÁTICO                                                                                          02
002112000000120010ISMAEL FELIPE                                     NAMEN GUTIERREZ DE PIÑERES                        77195563       M02
002112000000120020RAUL                                              TORRADO SALCEDO                                   18925102       M02
002112000000120030YOLEIDIS                                          DEARMAS PADILLA                                   49746260       F02
002112000000120040FABIO                                             DELGADO GUERRERO                                  7617968        M02
002112000000120050MONICA PATRICIA                                   ROMERO MESTRE                                     51983280       F02
002112000000120060DAVID HERNANDO                                    HERNANDEZ NIETO                                   72281417       M02
002112000000120070VICTOR HUGO                                       MOSQUERA GALVIS                                   13543845       M02
002112000000120080MARIA CLAUDIA                                     DAZA CASTRO                                       51934951       F02
002112000000120090MARITZA ESTHER                                    VEGA                                              49758815       F02
002112000000120100DAVID ELIAS                                       SIERRA DAZA                                       18937175       M02
002112000000120110JESUS HUMBERTO                                    CHINCHILLA URIBE                                  88282087       M02
002112000000040001PARTIDO CAMBIO RADICAL                                                                                              03
002112000000040511JULIO CESAR                                       CASADIEGOS NAVARRO                                91527539       M03
002112000000040521CARLOS ALBERTO                                    DAZA AROCA                                        77183554       M03
002112000000040531CLARA SEGUNDA                                     OROZCO ARIZA                                      1065574480     F03
002112000000040541REVOCADO                                          (A)                                               49740470       F03
002112000000040551MIGUEL ANGEL                                      GUTIERREZ RAMIREZ                                 15173087       M03
002112000000040561JOSE IGNACIO                                      BAQUERO BONILLA                                   77031461       M03
002112000000040571MIGUEL ANGEL                                      MARTINEZ CASTRO                                   18965648       M03
002112000000040581DIANA SUGEY                                       SOSA GOMEZ                                        1022346671     F03
002112000000040591ADRIAN                                            ZARATE LAMUS                                      77154651       M03
002112000000040601JAIRO RAFAEL                                      GOMEZ CERVANTES                                   77018694       M03
002112000000040611YAZMINA MERCEDES                                  RIVERO OVALLE                                     49685798       F03
002112000000050001PARTIDO ALIANZA VERDE                                                                                               04
002112000000050511OMAR ENRIQUE                                      BENJUMEA OSPINO                                   79320304       M04
002112000000050521MIGUEL ENRIQUE                                    MACEA MARTINEZ                                    6886828        M04
002112000000050531MANUEL GUILLERMO                                  MEJIA PALLARES                                    7142842        M04
002112000000050541DAILYNG KARINA                                    BOOM CARCAMO                                      1065581127     F04
002112000000050551YARIME SAMANDRA                                   LOBO BAUTE                                        52056985       F04
002112000000050561MIGUEL                                            CASTRO LAGOS                                      80799078       M04
002112000000050571AUGUSTO                                           BOTERO MARTINEZ                                   77026960       M04
002112000000050581CLAUDIA ANDREINA                                  MENDOZA                                           1065630204     F04
002112000000050591ANA MARIA                                         QUINTERO ACEVEDO                                  49782043       F04
002112000000050601JAVIER                                            BARBOSA ZABALA                                    13513032       M04
002112000000050611RONALT ARTURO                                     CASTILLA BROCHEL                                  77177101       M04
002112000000060001MOVIMIENTO AUTORIDADES INDÍGENAS DE COLOMBIA                                                                        05
002112000000060511LIBAR GREGORIO                                    MAESTRE AMAYA                                     77174492       M05
002112000000060521LUIS RAFAEL                                       CRUZ BALLESTERO                                   12455288       M05
002112000000060531ADAULFO                                           FERNANDEZ TORRES                                  77036546       M05
002112000000060541ROSA HELENA                                       MENDOZA MACHADO                                   49786301       F05
002112000000060551GUSTAVO                                           BLANCO SANTOS                                     18918812       M05
002112000000060561KELGGY VIRGINIA                                   OJEDA VILLAZON                                    1126242243     F05
002112000000060571JOSE LUIS                                         SILVA BASTIDAS                                    18971698       M05
002112000000060581NERYS MARIA                                       CASTRILLO ZAMBRANO                                1064718443     F05
002112000000060591GUALBERTO ALFONSO                                 VILLADIEGO MONTERROSA                             77169913       M05
002112000000060601AMALIA ELISA                                      MACHADO CARCAMO                                   1068388471     F05
002112000000060611JAIME                                             HERNANDEZ CASTRO                                  12717579       M05
002112000000100001PARTIDO POLO DEMOCRÁTICO ALTERNATIVO                                                                                06
002112000000100511JUAN CARLOS                                       PRIETO BARRIOS                                    77184799       M06
002112000000100521ANTONIO                                           AGUADO GARZON                                     5045423        M06
002112000000100531JHOANHANA ZUGEY                                   BOHORQUEZ ROSADO                                  49694715       F06
002112000000130000MOVIMIENTO ALTERNATIVO INDÍGENA Y SOCIAL "MAIS"                                                                     07
002112000000130010REVOCADO                                          (A)                                               77163736       M07
002112000000130020NERYNA                                            CERCHIARO MORON                                   49796292       F07
002112000000010001PARTIDO LIBERAL COLOMBIANO                                                                                          08
002112000000010511OLGA SOFIA                                        GALEZO MORALES                                    49764837       F08
002112000000010521LUIS EDUARDO                                      PABA AROCA                                        5013756        M08
002112000000010531EDUARDO EMILIO                                    ESQUIVEL LOPEZ                                    77102490       M08
002112000000010541ALFREDO ENRIQUE                                   PINTO MAESTRE                                     77012913       M08
002112000000010551GONZALO TOMAS                                     ARZUZA TORRADO                                    77033530       M08
002112000000010561ESMERALDA                                         GUILLEN PONTON                                    26723778       F08
002112000000010571JOSE ENRIQUE                                      MUNIVE CHURIO                                     77016349       M08
002112000000010581JESUS JAVIER                                      SUAREZ MOSCOTE                                    77150919       M08
002112000000010591CLAUDIA ESTHER                                    LARIOS DITTA                                      49757693       F08
002112000000010601OSIRIS LORENA                                     ROSADO POVEDA                                     1065587821     F08
002112000000010611VICTOR EMILIO                                     MARTINEZ GUTIERREZ                                12723865       M08
002112000000070001PARTIDO ALIANZA SOCIAL INDEPENDIENTE                                                                                09
002112000000070511JIMMY ALEXANDER                                   WATSON BRICEÑO                                    12645074       M09
002112000000070521WILLIAM RAFAEL                                    ROMERO MARTINEZ                                   77100931       M09
002112000000070531LIBIA HELENA                                      CAMARGO NUÑEZ                                     49792539       F09
002112000000070541ALEJANDRO                                         OSPINO TRESPALACIOS                               18934631       M09
002112000000070551JOSE LIVARDO                                      ARIAS FLOREZ                                      12496119       M09
002112000000070561JULIO HERNANDO                                    MANZANO ECHAVEZ                                   18972197       M09
002112000000070571SUGEIDYS DEL CARMEN                               CACERES JIMENEZ                                   49778794       F09
002112000000070581NATALIA ANDREA                                    BUENO VILLAR                                      1065635883     F09
002112000000070591ROBINSON                                          GARCIA MENDOZA                                    13512206       M09
002112000000070601AURA MARIA                                        HERNANDEZ DEL VALLE                               49791530       F09
002112000000070611ALFREDO                                           MORENO MOSCOTE                                    18969892       M09
002112000000090001PARTIDO DE LA U                                                                                                     10
002112000000090511JORGE ANTONIO                                     BARROS GNECCO                                     77168966       M10
002112000000090521EDGARDO ENRIQUE                                   ALBOR VALENZUELA                                  77009796       M10
002112000000090531LIMBER ANTONIO                                    REDONDO DE ARMAS                                  84079743       M10
002112000000090541JOSE GREGORIO                                     VIDES ZULUAGA                                     77102352       M10
002112000000090551PEDRO JULIO                                       SANTANA SOLANO                                    9691401        M10
002112000000090561EDUARDO SANTOS                                    FLOREZ VERGARA                                    1064107128     M10
002112000000090571PALMINA ESTHER                                    GUERRA MAESTRE                                    27013636       F10
002112000000090581REVOCADO                                          (A)                                               49740470       F10
002112000000090591ERIKA PATRICIA                                    RAMIREZ GUTIERREZ                                 49717053       F10
002112000000090601LAURY ALEJANDRA                                   SANCHEZ COTES                                     43870081       F10
002112000000090611JOSE SANTOS                                       CASTRO GONZALEZ                                   77090430       M10
002112000000030001PARTIDO OPCIÓN CIUDADANA                                                                                            11
002112000000030511JORGE LUIS                                        OÑATE CARDENAS                                    77032632       M11
002112000000030521ARAMIS                                            SALAZAR DAZA                                      77103178       M11
002112000000030531OVER MANUEL                                       VANEGAS MAESTRE                                   72125338       M11
002112000000030541ZINTHIA YURLEIDYS                                 CARRILLO SEPULVEDA                                1065817517     F11
002112000000030551GEOBERTO                                          RUIZ MARTINEZ                                     6756803        M11
002112000000030561LUZ AMPARO                                        SARABIA HERNANDEZ                                 36501017       F11
002112000000030571MILAGROS DE JESUS                                 VEGA PEREZ                                        56085937       F11
002112000000030581CARLOS ARTURO                                     MENDOZA ARANA                                     77177575       M11
002112000000030591DEVIS ROCIO                                       PALOMINO FRANCO                                   49765320       F11
002112000000030601VICTOR AUGUSTO                                    VEGA BERBEN                                       1065572425     M11
002112000000030611GELVER ANTONIO                                    CARDENAS MANCERA                                  18927223       M11
002113000000050001PARTIDO ALIANZA VERDE                                                                                               01
002113000000050511ELEAZAR JOSE                                      PEREZ OVIEDO                                      6875832        M01
002113000000050521LAURA CAROLINA                                    CELEDON ANGARITA                                  1067879829     F01
002113000000050531CARMELO JOSE                                      RUIZ RUIZ                                         15607415       M01
002113000000050541JUAN FIDEL                                        AMAYA HERNANDEZ                                   11003333       M01
002113000000050551EDUIN DE JESUS                                    CARRIAZO CALDAS                                   78291816       M01
002113000000050561RAMIRO ANTONIO                                    CURIEL MORENO                                     78586546       M01
002113000000050571MAIBELIN MARIA                                    MARQUEZ ARRIETA                                   50996376       F01
002113000000050581LEONOR ESTHER                                     MONTES TUIRAN                                     34961571       F01
002113000000050591RUDI NAIM                                         ORTIZ CARRASCAL                                   78589987       M01
002113000000050601YULY VANESA                                       OVIEDO CASTAÑO                                    1067890172     F01
002113000000110000PARTIDO UNIÓN PATRIÓTICA                                                                                            02
002113000000110010LINEY DEL CARMEN                                  PATERNINA MENDOZA                                 41723999       F02
002113000000110020AMAURY JOSE                                       VIOLA MIRANDA                                     10782971       M02
002113000000110030LEONEL ANTONIO                                    BALTAZAR SOTOMAYOR                                78301727       M02
002113000000110040ARNALDO                                           TAPIA JIMENEZ                                     10941600       M02
002113000000110050ARIANA ISABEL                                     BAYONA ZURITA                                     1073999283     F02
002113000000120001PARTIDO CENTRO DEMOCRÁTICO                                                                                          03
002113000000120511JACOB                                             NADER NAME                                        10901543       M03
002113000000120521EDGAR FELIPE                                      FAJARDO ZUÑIGA                                    8356142        M03
002113000000120541JOSE FERNANDO                                     COGOLLO CASTILLO                                  15674624       M03
002113000000120551PEDRO                                             ESPINOSA SOTO                                     78675677       M03
002113000000120561ROSA EMILIA                                       MARCHENA ANAYA                                    51631406       F03
002113000000120571ELIGIO RAFAEL                                     MUÑOZ PINEDA                                      6614445        M03
002113000000120581ELBA SUSANA                                       DE LEON CAUSIL                                    1067867483     F03
002113000000120591EUSTORGIO RAMON                                   ARRIETA PALACIO                                   15667668       M03
002113000000120601SAUL EMIRO                                        AMADOR BARRETO                                    78691648       M03
002113000000120611DELIS MARIA                                       VARON JARABA                                      1073985168     F03
002113000000120621MARTHA CECILIA                                    MARTINEZ ÑUSTEZ                                   34986939       F03
002113000000020001PARTIDO CONSERVADOR COLOMBIANO                                                                                      04
002113000000020511REMBERTO ANTONIO                                  TAPIA HERRERA                                     3800424        M04
002113000000020521REINALDO MANUEL                                   PEÑA LOPEZ                                        6887316        M04
002113000000020531CLARA LORENZA                                     PASTRANA GRACIA                                   34968470       F04
002113000000020551ANGELICA PATRICIA                                 SALGADO GARCIA                                    64579499       F04
002113000000020561HECTOR RICARDO                                    FRASSER ARRIETA                                   78698688       M04
002113000000020571DIEGO JOSE                                        PALLARES MANGONES                                 78689611       M04
002113000000020591ERIKA LILIANA                                     VILLAR SARMIENTO                                  50926521       F04
002113000000020621SANDRA MILENA                                     ALVAREZ FURNIELES                                 1067869032     F04
002113000000020631JAIRO ANTONIO                                     LOPEZ SALEME                                      8834894        M04
002113000000030001PARTIDO OPCIÓN CIUDADANA                                                                                            05
002113000000030511MILTON ENRIQUE                                    OVIEDO ALVAREZ                                    9092557        M05
002113000000030521RUBEN DARIO                                       GUERRA GIL                                        10769949       M05
002113000000030531ALEXANDRA PATRICIA                                PACHECO DIAZ                                      50959633       F05
002113000000030541ISIDRO JOSE                                       VERGARA FARAK                                     78114862       M05
002113000000030551ERIC                                              MONTES JARAMILLO                                  78768374       M05
002113000000030561ANDRES AVELINO                                    GONZALEZ MONTIEL                                  10894477       M05
002113000000030571TEOFANE RODRIGO                                   BRIEVA MARTINEZ                                   10777329       M05
002113000000030581PEDRO                                             LOPEZ AGUILERA                                    15019822       M05
002113000000030591RAFAEL ANGEL                                      OSORIO LARA                                       8729692        M05
002113000000030601KAREN PATRICIA                                    QUINTERO AGUADO                                   1067883441     F05
002113000000030611LUZ ANGELICA                                      FIGUEROA SIERRA                                   30580799       F05
002113000000030621KARINA ESTHER                                     ARTEAGA GUZMAN                                    30670330       F05
002113000000030631GERMAN ANTONIO                                    SALAZAR DIAZ                                      78296218       M05
002113000000090001PARTIDO DE LA U                                                                                                     06
002113000000090511JAIME MAURICIO                                    BELLO DIAZ                                        78675946       M06
002113000000090521ANTONIO MARIA                                     ORTEGA OTERO                                      78739890       M06
002113000000090531LUIS EDUARDO                                      SALUM SEJIN                                       78742460       M06
002113000000090541NORALDO                                           MONTES DIAZ                                       19431436       M06
002113000000090551CARLOS ALFONSO                                    BURGOS GONZALEZ                                   78077981       M06
002113000000090561YORYANI ISABEL                                    MERCADO PEREZ                                     1063146992     F06
002113000000090571BORIS FELIPE                                      ZAPATA ROMERO                                     77184046       M06
002113000000090581JOSE MANUEL                                       GUERRA PASTRANA                                   15606988       M06
002113000000090591YENIS MILENA                                      RAMOS BETANCOURT                                  30576730       F06
002113000000090601JOSE HUGO                                         RESTAN SANCHEZ                                    78762399       M06
002113000000090611CAROLINA                                          MEDINA CARDOZO                                    1069498064     F06
002113000000090621YOLIMA SUSANA                                     GUZMAN OTERO                                      34999638       F06
002113000000090631LUIS GABRIEL                                      DEGIOVANNI BEHAINE                                10776116       M06
002113000000100000PARTIDO POLO DEMOCRÁTICO ALTERNATIVO                                                                                07
002113000000100010VICTOR ANDRES                                     MEZA GALVAN                                       1064985268     M07
002113000000100020MARLON JOSE                                       ESPAÑA DORIA                                      78756661       M07
002113000000100030RAMON JOSE                                        BARRIOS IRIARTE                                   92499171       M07
002113000000100040ANTONIA DEL CARMEN                                DIAZ RIVERO                                       30561136       F07
002113000000100050NUMIDIA DEL CARMEN                                VEGA ARROYO                                       34971408       F07
002113000000010001PARTIDO LIBERAL COLOMBIANO                                                                                          08
002113000000010511ORLANDO DAVID                                     BENITEZ MORA                                      10778479       M08
002113000000010521LUIS ALFONSO                                      HERRERA LOPEZ                                     11058743       M08
002113000000010531LEANDRA PATRICIA                                  SAIBIS FERRER                                     30687856       F08
002113000000010541ELIO MARIANO                                      HOYOS FRANCO                                      98568151       M08
002113000000010551JUAN CAMILO                                       CORRALES SALEME                                   1063157291     M08
002113000000010561RAMIRO ENRIQUE                                    AVILEZ MERCADO                                    11002110       M08
002113000000010571JORGE ELIECER                                     LOPEZ HOYOS                                       78295071       M08
002113000000010581JOSE MIGUEL                                       MESTRA RAMOS                                      78024215       M08
002113000000010591JORGE DAVID                                       BARRETO RINCON                                    80765589       M08
002113000000010601FRANCISCA                                         LOPEZ DIZ                                         26115845       F08
002113000000010611ANGELA ADRIANA                                    ANAYA ANICHIARICO                                 26203570       F08
002113000000010621LUIS CARLOS                                       BERROCAL HERNANDEZ                                6889700        M08
002113000000010631LUDYS ESTHER                                      RODRIGUEZ ANGULO                                  50913612       F08
002121000000100001PARTIDO POLO DEMOCRÁTICO ALTERNATIVO                                                                                01
002121000000100511VILBRUN EDWARD                                    TOVAR PEÑA                                        8676975        M01
002121000000100521EDUARDO                                           TORRES RUIDIAZ                                    77028043       M01
002121000000100531EDGARDO ALFONSO                                   BALLESTAS URQUIJO                                 72008049       M01
002121000000100541MARGARITA CECILIA                                 GULFO SUAREZ                                      36544826       F01
002121000000100551JOSE MIGUEL                                       CERCHIARO NOGUERA                                 7143279        M01
002121000000100561ABELARDO ALFONSO                                  GAMARRA EBRAT                                     12611669       M01
002121000000100571YIDETH ELENA                                      RAMIREZ RAMIREZ                                   57439720       F01
002121000000100581MARIO JOAQUIN                                     CABALLERO VEGA                                    12593104       M01
002121000000100591INES PATRICIA                                     MARTINEZ BARRIOS                                  36669208       F01
002121000000100601KAREN SOFIA                                       GONZALEZ RUEDA                                    1129577986     F01
002121000000100611HUMBERTO RAFAEL                                   MIRANDA CORREA                                    3988756        M01
002121000000100621CAMPO ELIAS                                       MUÑOZ CHAJIN                                      85441532       M01
002121000000100631VICTOR SEGUNDO                                    BORJA CHIQUILLO                                   19593387       M01
002121000000010001PARTIDO LIBERAL COLOMBIANO                                                                                          02
002121000000010511MARTHA LUZ                                        LOPEZ CASTILLO                                    39092346       F02
002121000000010521JESUS SALOMON                                     SAADE PEREZ                                       1129572678     M02
002121000000010531MARIO LUIS                                        LOZANO MEDINA                                     5049065        M02
002121000000010541ALEXANDER ALBERTO                                 RONCALLO MIRANDA                                  7642169        M02
002121000000010551LUIS EDUARDO                                      VIVES GONZALEZ                                    1082914231     M02
002121000000010561MARIA DEL SOCORRO                                 CHARRIS PIZARRO                                   36542391       F02
002121000000010571SOSTENES                                          TORRES CORCHO                                     85451450       M02
002121000000010581TANIA PATRICIA                                    CORONELL GOENAGA                                  32759871       F02
002121000000010591HORACIO                                           GOMEZ SAAVEDRA                                    12555302       M02
002121000000010601JESUS ALBERTO                                     PACHECO BAYTER                                    1082837810     M02
002121000000010611ANGELICA PATRICIA                                 BULA TACHE                                        36666313       F02
002121000000010621JOSE GALO                                         CAMPO CABALLERO                                   84450992       M02
002121000000010631BLANCA ROSA                                       FERNANDEZ GUERRERO                                57411367       F02
002121000000090001PARTIDO DE LA U                                                                                                     03
002121000000090511HERNANDO                                          GUIDA PONCE                                       12547694       M03
002121000000090521ARIEL JULIO                                       ALVAREZ HERRERA                                   1082410656     M03
002121000000090531MARLEN VIVIANA                                    EBRATT GUERRERO                                   57296690       F03
002121000000090541LUIS EDUARDO                                      FORERO NUÑEZ                                      85449250       M03
002121000000090551JOSE LUIS                                         IRIARTE ESCAMILLA                                 12559234       M03
002121000000090561JOSHUA                                            ECHEVERRY ALCENDRA                                1082921320     M03
002121000000090571JAIRO FERNANDO                                    SITU LOPEZ                                        4978708        M03
002121000000090581LUZ ESTELA                                        PINTO ESPAÑA                                      56083849       F03
002121000000090591CARMEN ROSA                                       CASAS CASTELLANOS                                 51775466       F03
002121000000090601ANTONIO                                           FIORENTINO MOJICA                                 19587145       M03
002121000000090611JULIA EDITH                                       CORREA QUIROZ                                     36721290       F03
002121000000090621RAFAEL EMIRO                                      DIAZ SUAREZ                                       7597980        M03
002121000000090631ANSELMO RAFAEL                                    MARIN PEREA                                       85466131       M03
002121000000020001PARTIDO CONSERVADOR COLOMBIANO                                                                                      04
002121000000020511ALEX ANTONIO                                      VELASQUEZ ALZAMORA                                85454066       M04
002121000000020521JUAN CARLOS                                       SANCHEZ DE MARTINO                                19595233       M04
002121000000020531LUIS ALBERTO                                      VIZCAINO                                          12630537       M04
002121000000020541ALFONSO GONZALO                                   RADA MARTINEZ                                     12621198       M04
002121000000020551MARYORIS PAOLA                                    CHARRIS ODUBER                                    57290633       F04
002121000000020561SAMUEL ANTONIO                                    ALZATE NUÑEZ                                      12631187       M04
002121000000020571RAMON ALBERTO                                     CAMPO GONZALEZ                                    12558183       M04
002121000000020581JOSE LUIS                                         OVALLE MOZO                                       12563255       M04
002121000000020601VIVIANA                                           ROJAS MARIN                                       36667028       F04
002121000000020611ALEXIS MARIA                                      ODUVER GOMEZ                                      57442735       F04
002121000000020621MARTHA PATRICIA                                   NUÑEZ GUERRA                                      1083023864     F04
002121000000020631LACIDES JOSE                                      SOTO LABORDE                                      85467048       M04
002121000000120001PARTIDO CENTRO DEMOCRÁTICO                                                                                          05
002121000000120511JAIR ALEXANDER                                    MEJIA ALVEAR                                      1082871794     M05
002121000000120521VICTOR DE JESUS                                   TIRADO LLINAS                                     7630491        M05
002121000000120531JOHN JADER                                        SANTOYA MEJIA                                     19615499       M05
002121000000120541FABIAN DE JESUS                                   PIZARRO MARTINEZ                                  19589894       M05
002121000000120551DILIA CELINA                                      CONTRERAS CANTILLO                                57270168       F05
002121000000120561EVA MAILEN                                        MIRANDA HENRIQUEZ                                 57433762       F05
002121000000120571MARIA JOSE                                        ZAMBRANO FERNANDEZ                                1081816483     F05
002121000000120581HUBER ELIECER                                     BARRETO OSPINO                                    85163643       M05
002121000000120601JAVIER ENRIQUE                                    CUCUNUBA REYES                                    85449586       M05
002121000000040001PARTIDO CAMBIO RADICAL                                                                                              06
002121000000040511CLAUDIA PATRICIA                                  AARON VILORIA                                     57438487       F06
002121000000040521ROSA MARGARITA                                    VILLAFAÑA VILLAFAÑA                               36555698       F06
002121000000040531JOHN MARLON                                       ALMARALES BERDUGO                                 12637591       M06
002121000000040541BRIGIDA GERTRUDIS                                 BERMUDEZ PAEZ                                     36540244       F06
002121000000040551JOSE DOMINGO                                      DAVILA MORALES                                    72244676       M06
002121000000040561CARLOS MARIO                                      ROJAS CCENTENO                                    1124035884     M06
002121000000040571JAIRO JESUS                                       DIAZGRANADOS CAMARGO                              19216285       M06
002121000000040581JHON JORGE                                        GARCIA BARRIOS                                    7144434        M06
002121000000040591FIDIAS ZEIDER                                     OSPINO FERNANDEZ                                  12582120       M06
002121000000040601JOSE DE LOS SANTOS                                CHACIN LOPEZ                                      85454211       M06
002121000000040611VALENTINA                                         HERRERA SERRANO                                   1045715115     F06
002121000000040621IVAN ANTONIO                                      PAREJO OSORIO                                     72127012       M06
002121000000040631JOSE ALFREDO                                      ARAGON ROYO                                       72344316       M06
002121000000030001PARTIDO OPCIÓN CIUDADANA                                                                                            07
002121000000030511ALVARO JOSE                                       OROZCO GOMEZ                                      5094475        M07
002121000000030521MARCOS RAFAEL                                     BRUGES SANTOS                                     17808092       M07
002121000000030531CARLOS ALBERTO                                    PAREJO BUELVAS                                    5074515        M07
002121000000030541PEDRO ERASMO                                      TORRIJOS MUÑOZ                                    19515557       M07
002121000000030551MARIA INES                                        CUELLO CANALES                                    22584066       F07
002121000000030561JUAN CARLOS                                       SIERRA CARMONA                                    79373319       M07
002121000000030571ORLANDO JOSE                                      CARDILES HERNANDEZ                                12558410       M07
002121000000030581EDDIE JOSE                                        MENDOZA CASTRO                                    7144528        M07
002121000000030591ALBERTO WILLIAM                                   MENDOZA FUENTES                                   85474350       M07
002121000000030601KEYLA MARGARITA                                   VARGAS FERNANDEZ                                  1083006493     F07
002121000000030611DIANA PATRICIA                                    POMARES CABAS                                     39047375       F07
002121000000030621ELIZABETH MARIA                                   ARROYO VELASQUEZ                                  57426599       F07
002121000000030631CESAR AUGUSTO                                     CABALLERO SIERRA                                  7593095        M07
002121000000050001PARTIDO ALIANZA VERDE                                                                                               08
002121000000050511JULIAN ALBERTO                                    AMADOR HAYDAR                                     72292889       M08
002121000000050521HIDERALDO ALTAIR                                  ESPINOSA VILORIA                                  85453910       M08
002121000000050531CARLOS JULIO                                      DIAZ GRANADOS ALVAREZ                             12635856       M08
002121000000050541JOSE ANTONIO                                      HERNANDEZ DIAZ GRANADOS                           12551802       M08
002121000000050551FREDY JAVIER                                      JIMENEZ ZARATE                                    19583984       M08
002121000000050561JUANA BAUTISTA                                    MANGA MONSALVO                                    57456322       F08
002121000000050571VIERIS MARINA                                     REBOLLEDO RODRIGUEZ                               39047603       F08
002121000000050581MARIA ANGELICA                                    GOMEZ MONTOYA                                     1082973560     F08
002121000000050591CLINTON ALBERTO                                   RAMIREZ CONTRERAS                                 12617352       M08
002121000000050611BIVIANA PATRICIA                                  ROYS CASTILLO                                     36721921       F08
002121000000050621JUAN BAUTISTA                                     BARRIOS                                           77172646       M08
002121000000050631CESAR AUGUSTO                                     BATEMAN ROMERO                                    79549050       M08
002148000000020001PARTIDO CONSERVADOR COLOMBIANO                                                                                      01
002148000000020511KARINA ROSA                                       NAVAS RODRIGUEZ                                   40938952       F01
002148000000020521RAFAEL ANTONIO                                    FREYLE BROCHERO                                   84087125       M01
002148000000020531MARLI ESTHER                                      SALCEDO MEDINA                                    45582183       F01
002148000000020541YAINER MARIA                                      PEÑARANDA MONTES                                  40935779       F01
002148000000020551CRISTIAN EDUARDO                                  OROZCO POSADA                                     84063339       M01
002148000000020561RETIRADO                                          (A)                                               84032463       M01
002148000000020571EDGAR ALFONSO                                     FOMINAYA TROMP                                    84043442       M01
002148000000020581RODRIGO DANILO                                    LASTRA IBARRA                                     17855846       M01
002148000000100001PARTIDO POLO DEMOCRÁTICO ALTERNATIVO                                                                                02
002148000000100511FELIX HUMBERTO                                    ROSANIA AGUIRRE                                   15208140       M02
002148000000100531JOSE ENRIQUE                                      DELUQUE MENDOZA                                   17806602       M02
002148000000100541ROBERTO                                           RAMOS DIAZ                                        17846888       M02
002148000000100561SANDRA NAYETH                                     SMIT RAMIREZ                                      40927307       F02
002148000000100571LINETH EVELINA                                    URIANA ARPUSHANA                                  1118841571     F02
002148000000100581LUISA FERNANDA                                    DELUQUEZ ROJAS                                    1118850812     F02
002148000000100591ENRIQUE LUIS                                      LOPEZ DANGOND                                     17974564       M02
002148000000100601YASMIN                                            ROMERO EPIAYU                                     22647780       F02
002148000000100611ELISEO ANTONIO                                    SOLANO CARRILLO                                   5152248        M02
002148000000030001PARTIDO OPCIÓN CIUDADANA                                                                                            03
002148000000030511BLAS ANTONIO                                      QUINTERO MENDOZA                                  84034426       M03
002148000000030521CIELO MARGARITA                                   VEGA MENDOZA                                      40933059       F03
002148000000030531JACOBO SENEN                                      SOLANO PARODI                                     79430928       M03
002148000000030541JOSE IGNACIO                                      LUBO PALACIOS                                     84092105       M03
002148000000030551OLIMAR MERCEDES                                   ALBORNOZ PEREZ                                    45485809       F03
002148000000030561MAYKEL YESID                                      CASTILLA ARIZA                                    84092520       M03
002148000000030571RETIRADO                                          (A)                                               1118835038     F03
002148000000030581ALFREDO RAFAEL                                    MARTINEZ EPIAYU                                   84005889       M03
002148000000030591LUIS ANDRES                                       GONZALEZ ARPUSHANA                                84081219       M03
002148000000030601BEATRIZ EUGENIA                                   HERRERA CASTELLANOS                               22493243       F03
002148000000030611SAMUEL SANTANDER                                  LOPESIERRA MEJIA                                  17807136       M03
002148000000090001PARTIDO DE LA U                                                                                                     04
002148000000090511LUIS EDUARDO                                      MEJIA SARMIENTO                                   70057790       M04
002148000000090521MARIA ESTELLA                                     PEÑALOZA OVALLE                                   40797878       F04
002148000000090531GABRIEL ESTEBAN                                   PINTO REDONDO                                     84025998       M04
002148000000090541ELIZABETH MARIA                                   CUESTA MARMOL                                     40977539       F04
002148000000090551JORGE LUIS OSCAR ALFREDO                          LOPEZ DAZA                                        1122808709     M04
002148000000090561ROBERTO DE JESUS                                  MURGAS IBARRA                                     5145767        M04
002148000000090571BREINER                                           ROBLEDO MEZA                                      1118807239     M04
002148000000090581ELIZABETH                                         VILLA ZUBIRIA                                     1118848956     F04
002148000000090591VICENTE ANTONIO                                   GONZALEZ IGUARAN                                  84046794       M04
002148000000090601LUZ DARY                                          DELGADO URIANA                                    1124498902     F04
002148000000090611SAYIRA                                            GARCIA ARIZA                                      51884592       F04
002148000000010001PARTIDO LIBERAL COLOMBIANO                                                                                          05
002148000000010511ASTRID LEONOR                                     ARIZA PARRA                                       40916807       F05
002148000000010521DAURYS ELENA                                      CUELLO DAZA                                       32865433       F05
002148000000010531IDELFONSO PEDRO                                   MEDINA ROMERO                                     17951558       M05
002148000000010541YOEL                                              BLANCHAR PLATA                                    84073457       M05
002148000000010551LICELIS DAIRLEY                                   CASTAÑEDA ALMAZO                                  1033681789     F05
002148000000010561RODRIGO LUIS                                      ARREDONDO ALMAZO                                  12538329       M05
002148000000010571YERANIA LISETH                                    PIMIENTA GUERRA                                   40937740       F05
002148000000010581JOSE LUIS                                         SOLANO VERGARA                                    1120740876     M05
002148000000010591JAIME SEBASTIAN                                   MEDINA DAZA                                       1118847523     M05
002148000000010601NAIROBIS SKEL                                     MINDIOLA CORTES                                   1118843991     F05
002148000000040001PARTIDO CAMBIO RADICAL                                                                                              06
002148000000040511HILBER ALONSO                                     PINTO ARAGON                                      84049193       M06
002148000000040521DESIRETH KASANDRA                                 RODRIGUEZ VILLA                                   1118829067     F06
002148000000040531JOSE MARIA                                        ROMERO AMAYA                                      84026304       M06
002148000000040541SINDY YULIETH                                     GUZMAN GARCIA                                     1006569024     F06
002148000000040551JORGE MIGUEL                                      MAGDANIEL ROSADO                                  19432847       M06
002148000000040561EMILA MILETH                                      BERMUDEZ SIERRA                                   40937035       F06
002148000000040571LIBARDO EUSTACIO                                  ALCALA SEGOVIA                                    7592582        M06
002148000000040601ANA MARIA                                         SIERRA CAMELO                                     40925341       F06
002148000000040611JOSE ALFONSO                                      ARIAS CAMPUZANO                                   5156118        M06
002148000000050001PARTIDO ALIANZA VERDE                                                                                               07
002148000000050511DINA LIANE                                        GOMEZ PIMIENTA                                    41639540       F07
002148000000050521JAIRO FERNANDO                                    SOLANO CERVANTES                                  84110851       M07
002148000000050531EDUARDO JOSE                                      DIAZ GRANADOS MARQUEZ                             72201470       M07
002148000000050551LUIS FERNANDO                                     LOBO BARRERA                                      1118880460     M07
002148000000050561YADER RAFAEL                                      RIPOLL FINOL                                      84068919       M07
002148000000050571YAZMIN GIOVANNA                                   RODRIGUEZ LENES                                   49741485       F07
002148000000050581ALEXY MARTA                                       TORRES MIRANDA                                    57306743       F07
002148000000050591NEY DAVID                                         DAZA BUSTILLO                                     84071535       M07
002148000000070001PARTIDO ALIANZA SOCIAL INDEPENDIENTE                                                                                08
002148000000070511MICHER                                            PEREZ FUENTES                                     17954950       M08
002148000000070521GENARO DAVID                                      REDONDO CHOLES                                    84080698       M08
002148000000070531ERIBERTO ANTONIO                                  IBARRA CAMPO                                      79712519       M08
002148000000070541CARLOS ANDRES                                     DAZA PALOMINO                                     5164923        M08
002148000000070551NERBEL                                            REYES SOLANO                                      92527386       M08
002148000000070561SELENA DEL ROSARIO                                RINCONES CAMARGO                                  56056222       F08
002148000000070571MALVIS KATERINE                                   FLOREZ RIVEIRA                                    1124374125     F08
002148000000070581ADERIS MARIA                                      GUERRA SARMIENTO                                  40942301       F08
002148000000070591MARIBEL DEL SOCORRO                               MEJIA GAMEZ                                       40921563       F08
002148000000070601EDWIN                                             TEHERAN AMARIS                                    84064538       M08
002148000000070611EIMER ALBERTO                                     RODRIGUEZ MENDOZA                                 17975824       M08
002156000000090001PARTIDO DE LA U                                                                                                     01
002156000000090511MARIA                                             SAID DARWICH                                      39150894       F01
002156000000090521ORLY                                              ROZO LOZANO                                       18009979       M01
002156000000090531LUIS GABRIEL                                      FONTALVO MARTINEZ                                 18004089       M01
002156000000090541YANETH                                            PAUTT LOPEZ                                       40991310       F01
002156000000090551ANDRES                                            JAMES BRANT                                       18002747       M01
002156000000090561EDISSON                                           LONDOÑO VIVAS                                     18001834       M01
002156000000090571CAROLINA PATRICIA                                 PUAS MURILLO                                      40991691       F01
002156000000090581JEFFRY ALLAN                                      BRYAN WILSON                                      18003979       M01
002156000000090591ANA ISABEL                                        JIMENEZ ARRIETA                                   22953840       F01
002156000000090601WILMER                                            CEDRON AHUMADA                                    73162602       M01
002156000000090611WELLINGTON                                        RANKIN BENT                                       18005240       M01
002156000000070001PARTIDO ALIANZA SOCIAL INDEPENDIENTE                                                                                02
002156000000070511ELEONOR                                           VELOZA JAY                                        40986014       F02
002156000000070521EDGAR                                             VARELA ANGULO                                     88186346       M02
002156000000070531ENERIS ESTHER                                     RAMOS MARTINEZ                                    1123628441     F02
002156000000070541CRICIA SHIRLEY                                    POMARE BOXTON                                     40991075       F02
002156000000070551ARNOLD                                            BARKER                                            18003879       M02
002156000000070561WILBOR                                            PEREZ PATERNINA                                   73142896       M02
002156000000070571SANDRA JOHANA                                     CHAPARRO MORA                                     40992072       F02
002156000000070581LUIS MARIANO                                      ALMEIDA RICO                                      18009415       M02
002156000000070591FRANCISCO                                         BENT SANTANA                                      19454747       M02
002156000000070601MARLON LUCIANO                                    MAY CORPUS                                        15241019       M02
002156000000070611ALICIA ELMIRA                                     MITCHELL HUNTER                                   39154671       F02
002156000006780001MOVIMIENTO DE INTEGRACIÓN SOCIAL                                                                                    03
002156000006780511DORIS MARGARITA                                   SANTAMARIA MORENO                                 32653808       F03
002156000006780521WILMAR                                            MORELOS ZUÑIGA                                    18008606       M03
002156000006780531GABRIEL ALBERTO                                   STEELE JAY                                        18000838       M03
002156000006780541JOHN DAVID                                        FLOREZ LIBREROS                                   18010084       M03
002156000006780551MILLISCENT JENNIFER                               O'NEILL FERNANDEZ                                 40990767       F03
002156000000010001PARTIDO LIBERAL COLOMBIANO                                                                                          04
002156000000010511MARGITH                                           BANDERA ESPITIA                                   39154184       F04
002156000000010521ABEL SALOMON                                      ARCHBOLD JOSEPH                                   17809406       M04
002156000000010531NAURO RAFAEL                                      CABALLERO ARREDONDO                               1123631697     M04
002156000000010541FREDDY JOSE                                       HERAZO RICARDO                                    3857078        M04
002156000000010551JIM EMERSON                                       REEVES POMARE                                     18003539       M04
002156000000010561CLARET SULEICA                                    WRIGTH FUENTES                                    1123625768     F04
002156000000010571ANGELA MARIA                                      CELIS STEEL                                       40988254       F04
002156000000010581NORMAN ALFORD                                     PUSEY POMARE                                      18002708       M04
002156000000010591MILTON                                            LOPEZ JAMES                                       18000934       M04
002156000000010601VICTOR                                            WILSON FRANCIS                                    15244170       M04
002156000000010611CLAUDIA PATRICIA                                  CIFUENTES ROBLES                                  40988191       F04
002156000004630001MOVIMIENTO DE INTEGRACIÓN REGIONAL                                                                                  05
002156000004630511STEVE HAMILTON                                    JESSIE MARTINEZ                                   15244677       M05
002156000004630521ANTONIO FRANCISCO                                 VONBLON POMARE                                    15242461       M05
002156000004630531JOSE                                              MITCHELL HUDGSON                                  15243303       M05
002156000004630541JULIO ENRIQUE                                     ROBINSON MCCLOUD                                  15243946       M05
002156000004630551CARLO DOMINGO                                     GALLARDO ROJAS                                    1123620334     M05
002156000004630561PATRICIA                                          JAY DONADO                                        40989865       F05
002156000004630571SABINA ISABEL                                     ACOSTA VERDEZIA                                   40986941       F05
002156000004630581NORA MARGARITA                                    VARGAS FLORES                                     40988514       F05
002156000004630591MELANNY MARCELA                                   HUERTAS ROSARIO                                   1123631816     F05
002156000004630601IVAN                                              GARCIA JIMENEZ                                    18003438       M05
002156000004630611JAYSON JACOB                                      TAYLOR DAVIS                                      18008344       M05
002156000000030001PARTIDO OPCIÓN CIUDADANA                                                                                            06
002156000000030511KATIA ELENA                                       OUTTEN LYNTON                                     40985559       F06
002156000000030521SANDRA PATRICIA                                   LOPEZ BUITRAGO                                    40989809       F06
002156000000030531ALEN LEONARDO                                     JAY STEPHENS                                      18002261       M06
002156000000030541HECTOR RAFAEL                                     DE ORO ORTIZ                                      73095285       M06
002156000000030551BARTOLOME ANTONIO                                 TAYLOR JAY                                        73159814       M06
002156000000030561PATRICIA                                          BOWIE POMARE                                      39152994       F06
002156000000030571PEDRO                                             CORREA MANZUR                                     18008262       M06
002156000000030581CHARLIE                                           JARAMILLO MAZA                                    40990834       F06
002156000000030591ADOLFREDO                                         CANABAL HERNANDEZ                                 73127076       M06
002156000000030601ARLINGTON LEE                                     HOWARD HERRERA                                    18001309       M06
002156000000030611ESCORCIO ANTONIO                                  CHRISTOPHER POMARE                                15244264       M06
002156000000040001PARTIDO CAMBIO RADICAL                                                                                              07
002156000000040511OSCAR EMILIO                                      BOWIE STEPHENS                                    18000660       M07
002156000000040521ALI AHMET                                         CHAUCHAR GIACOMETTO                               15244417       M07
002156000000040531ESPERANZA                                         ANGULO CAICEDO                                    25436103       F07
002156000000040541LUIS ANTONIO                                      SANCHEZ LOPEZ                                     15243385       M07
002156000000040551MILENA YUSETH                                     ALVARADO ALVAREZ                                  40992464       F07
002156000000040561ROSA ISABEL                                       ARRIETA PEREZ                                     40991139       F07
002156000000040571JOSE MANUEL                                       CAÑATE MARQUEZ                                    72281947       M07
002156000000040581RAMIRO                                            NAVARRO MAY                                       15244586       M07
002156000000040591JOSE DEL CARMEN                                   SALCEDO HURTADO                                   18001629       M07
002156000000040601IDECY MAYLETH                                     ARJONA KELLY                                      45551831       F07
002156000000040611JED KIRK                                          HOWARD GONZALEZ                                   18001335       M07
002156000000020001PARTIDO CONSERVADOR COLOMBIANO                                                                                      08
002156000000020511JULIO CESAR                                       GALLARDO MARTINEZ                                 73091977       M08
002156000000020521CANDELARIO                                        MERCADO PARRA                                     9202024        M08
